:020000040800F2
:10000000B0080020B5010008A72F0008C529000886
:10001000A52F000803160008B13B000800000000EF
:1000200000000000000000000000000097340008FD
:1000300029180008000000009534000899340008D1
:10004000CF010008CF010008CF010008CF01000850
:10005000CF010008CF010008CF010008CF01000840
:10006000CF010008CF010008CF010008CF01000830
:10007000CF010008CF010008CF010008CF01000820
:10008000CF010008CF010008CF010008CF01000810
:10009000CF010008CF010008CF010008CF01000800
:1000A000CF010008CF010008CF010008CF010008F0
:1000B000CF010008CF010008CF010008CF010008E0
:1000C000CF010008CF010008CF010008CF010008D0
:1000D000CF010008B9380008CF010008CF0100089F
:1000E000CF010008CF010008CF01000800F002F89E
:1000F00000F050F80AA090E8000C82448344AAF172
:100100000107DA4501D100F045F8AFF2090EBAE86F
:100110000F0013F0010F18BFFB1A43F0010318473B
:100120001053000030530000103A24BF78C878C143
:10013000FAD8520724BF30C830C144BF04680C60ED
:10014000704700000023002400250026103A28BF35
:1001500078C1FBD8520728BF30C148BF0B60704739
:10016000662904F0C082752900F05880002070478D
:100170001FB500F0AFFC04000020002103F02CFFAD
:10018000401C60600020002103F010FFE0601FBDF4
:1001900010B510BD00F0EAFD1146FFF7E9FF03F0CE
:1001A00043FD00F016FE03B4FFF7F2FF03BC00F0BE
:1001B00059FE00000948804709480047FEE7FEE76E
:1001C000FEE7FEE7FEE7FEE7FEE7FEE7FEE7FEE707
:1001D00004480549054A064B70470000FB340008F7
:1001E000ED000008B0020020B0080020B00400209C
:1001F000B00400200FB41CB5074B06AA7B44694627
:100200000090059800F009FC0020694600F018FCF9
:100210001CBC5DF814FB0000410800002DE9F04112
:100220000646002410687529314616A510D0AFF394
:100230000080002802DA404213A507E031688A07EF
:1002400001D512A502E0490704D511A5012401E05A
:10025000AFF3008000210A2206F1240709E0B0FB79
:10026000F2FCB0FBF2F302FB1C003030785418466D
:10027000491C0028F3D123462A463046BDE8F04108
:1002800000F05EB9000000002D0000002B0000000F
:10029000200000002DE9F0474FF0000A894604468F
:1002A000C0F820A02046E1688847002876D025289D
:1002B00006D0D4E901219047206A401C2062F1E772
:1002C000E168204600268847C4F81CA005460027A0
:1002D000C4F818A02A2D09D0284603F08EFC38B3A4
:1002E00004EB8708303DC8F8185019E059F8041B92
:1002F000204604EB87029161E1688847012F05469B
:1003000018D1E069002820DA26F020061DE0D8F890
:10031000180000EB800005EB40003038C8F81800EA
:100320002046E1688847054603F067FC0028EED1C7
:10033000012F0AD02E2D08D12046E16888477F1C66
:100340000546022F46F02006C4DBA069002803DA28
:10035000404246F00106A061F00701D026F01006E9
:100360006C2D0AD0682D08D04C2D39D06A2D35D08F
:10037000742D35D07A2D33D016E0E1682F46204613
:100380008847B84205460AD16C2F27D04FF48060C9
:10039000E168064320468847054605E027E06C2FC4
:1003A0001AD04FF4807006430DB3A5F1410019280F
:1003B00002D8203546F400664A4629462046266083
:1003C0004E46FFF7CDFE80B101280BD0F61D26F07A
:1003D000070000F1080965E74020E4E78020D7E73F
:1003E0000020D5E706F104095CE7284661E7206AAA
:1003F000BDE8F08770B5064600F09EF80468054633
:1004000030460A22002100F020FB2C6070BD10B5A0
:10041000431C02E010F8011B71B18107FAD14FF0C3
:10042000013202C88C1A8C4314EAC211F9D0C01AE6
:100430000A0603D0C01E10BDC01A10BD0A0401D0A8
:10044000801E10BD0902FCD0401E10BD40EA010311
:1004500070B59B072ED14FF00136042A2AD308C865
:1004600010C99D1B9D43121F15EAC61517D0D8B29F
:10047000E1B2401A50EA056110D198B2A1B2401A17
:1004800050EA05410AD123F07F4024F07F41401A11
:1004900050EA052102D1180EA0EB146070BDA342F2
:1004A000DBD018BA21BA884201D9012070BD4FF0C3
:1004B000FF3070BD0AB9002070BD10F8013B11F883
:1004C000014B63B1A3420AD1521E08D010F8013B80
:1004D00011F8014B1BB1A34201D1521EEDD1181BE3
:1004E00070BD4FF0000200B5134694469646203981
:1004F00022BFA0E80C50A0E80C50B1F12001BFF4DD
:10050000F7AF090728BFA0E80C5048BF0CC05DF842
:1005100004EB890028BF40F8042B08BF704748BF90
:1005200020F8022B11F0804F18BF00F8012B704704
:100530007047704770470000004870474C02002029
:100540002DE9F0470D4699469246044600F12408ED
:100550000168880604D5E06921F01001216000E0FF
:100560000120A84201DD471B00E00027A1697A199C
:1005700002EB0900081AA0612078C00602D42046C8
:10058000AFF30080002608E0D4E901211AF8060044
:100590009047206A401C761C20624E45F4DB207890
:1005A000C0060AD52046AFF3008006E0D4E9012159
:1005B00030209047206A401C2062381EA7F10107B6
:1005C000F4DC07E0D4E9012118F805009047206A1F
:1005D000401C2062281EA5F10105F3DC2046AFF384
:1005E00000802078000602D50220BDE8F0870120B7
:1005F000FBE770472DE9FF4F0C461E464FF0FF37D3
:100600008BB0D2E90001DDF860800A908A46C1F320
:100610000A5505B93D46002108464FF00000BAF1E1
:10062000000F00F4400005DA00EB80004FF44001B9
:1006300001EA50004FEA9059B9F1010F00DDB946C7
:100640000A9850EA4A000ED044F61050A5F2FF3541
:1006500045432F14B8F1000F1ED07542291E1EDD30
:10066000C9F100021CE0B8F1010F4FF0000001D009
:10067000302103E0F24305E02154401CB042FBDB93
:1006800030460022002121540B99C1F80880C1E9AD
:1006900000200FB0BDE8F08FBD1B6D1CDEE74A46A1
:1006A00000DA694206A800F0EFFA06AB93E807000B
:1006B00003AB83E8070050460A9900F0DAFB8DE8A7
:1006C0000700A0F500501F3800900398002D0ADDA8
:1006D00042F21F014A460844002303A903906846DA
:1006E00000F043FE09E0A0F500504A461F38002301
:1006F00003A90390684600F04DFE8DE80700000452
:10070000000C03D04FF0FF30410800E01046B8F174
:10071000000F03D00022009215461EE0751E05D47E
:1007200000F0DCF9303262556D1EF9D5B346012276
:10073000084302D000227F1C04E02078302801D139
:1007400000227F1E002A099784D01DE0112D07DAB0
:1007500000F0C4F9303262556D1C50EA0102F5D147
:10076000084302D00098C8B10EE00021681E05E0E1
:10077000235C625C63542254401E491C8142F7DBB7
:10078000AB46A81B401E0990002004F80B000B98F4
:10079000099AC0F80880C0E9002B7AE711264FF0CB
:1007A000000857E72DE9F04F88460446D21D22F095
:1007B000070191B0D1E90001CDE90A0103F0F9F98F
:1007C00002460B98C00F01D02D2007E0206881075A
:1007D00001D52B2002E0202101EAC000032A099064
:1007E00001D0072A05DB03464146204600F0BCF94C
:1007F0000BE12078800601D5E06900E00620B8F121
:10080000650F814606D0B8F1660F18D0B8F1670FB2
:1008100070D131E00020B9F1110F009001DB1123FC
:1008200001E009F101030AAA01A90CA8FFF7E2FE01
:10083000DDE90C70002609F10105834647E001203F
:100840004B4600904FF000470AAA01A90CA8FFF7F9
:10085000D1FEDDE90DB00C995D46002610B909F115
:1008600001000D18B9EB050003D4C0F1FF3609F102
:100870000105A5EB09002BE0B9F1010F01DA4FF0FA
:1008800001090020B9F1110F0090484601DD112344
:1008900000E003460AAA01A90CA8FFF7ABFEDDE9B8
:1008A0000C704D4600268346207800070AD4AB45DD
:1008B00000DA5D4601A8012D04DD411911F8011C83
:1008C000302907D04F4502DA17F1040F04DA01206E
:1008D00082460FE06D1EEEE7002F02DCED1B3E446A
:1008E00003E0781CA84200DD7D1CB81B00F1010A62
:1008F0004FF000472078000703D4AA4501DB4FF0F2
:10090000FF3A0021B7F1004F0DF143088DF8431075
:1009100024D002202B23002F01DA7F422D230A212D
:10092000021EA0F1010000DC5FB197FBF1FC97FB18
:10093000F1F201FB1C7C17460CF1300C08F801CDDC
:10094000EEE7A8F1010003702188090501D54521D2
:1009500000E06521A0F1010800F8011C09980FA929
:10096000A1EB0807FF1D00B10120411901EBEA705E
:10097000A1693844081A401EA0612078C00602D43C
:100980002046AFF30080099828B1D4E901219047AF
:10099000206A401C20622078C00622D52046AFF392
:1009A00000801EE0002E04DBB34502DD01A8805D5F
:1009B00000E03020D4E901219047206A401C2062E9
:1009C000761CAAF101005FEA000A0AD100F082F861
:1009D000C0680168405CD4E901219047206A401C4E
:1009E0002062281EA5F10105DCDC07E0D4E9012125
:1009F00018F8010B9047206A401C2062381EA7F1AE
:100A00000107F3DC2046AFF30080032011B041E67C
:100A100001694A1C02610878704700B58FB0CDE9C2
:100A200001310021059105497944CDE903101146B2
:100A30006846FFF72FFC0FB000BD0000E5FFFFFF89
:100A40000A6802F8010B0A6070472DE9F0479146E9
:100A50000F4680460446002614F8015B2DB100F0D5
:100A600031F80068405DC007F6D12B2D02D02D2D46
:100A700018D0641E4A463946204600F0B5F827B122
:100A80003968A14201D1C7F800804FF00204710516
:100A90000BD54042002803DDFFF74EFD0460A007A0
:100AA000BDE8F08746F48066E4E70028F8DAFFF74F
:100AB00043FD04606FF00040F2E70000004870471B
:100AC0004C02002010B500F005F8001D10BD00BF5D
:100AD00009350000004870476C02002030B5B0F1C5
:100AE0000A024FEA900E71F100034EEA817EB0EBEC
:100AF0000E0061EB91014FEA101E4EEA017E10EBF1
:100B00000E0041EB11114FEA102E4EEA016E10EB70
:100B10000E0041EB11214FEA104E4EEA014E10EB50
:100B20000E0041EB1141401841F100014FEAD000A5
:100B300040EA41704FEAD10110EB80054FEA810491
:100B400044EA907444EB01046D1944EB0404521B15
:100B5000A3414FF0000348BF0A3200D530BD401C0E
:100B600041F1000130BD00002DE9F0411F4604466F
:100B700003260168072A01F4006004DB08B116A50A
:100B800005E016A503E008B115A500E015A521F0C4
:100B900010002060A069C01EA0610FB1401EA061BE
:100BA0002046AFF300804FB1D4E901213846904789
:100BB000206A401C2062C01C206206E0206AFAE71E
:100BC000D4E9012115F8010B9047761EF8D2204692
:100BD000AFF30080BDE8F0814E414E006E616E00C3
:100BE000494E4600696E66002DE9F05F8246154663
:100BF0008B4600270AF10104B9460078302801D05D
:100C00009DB113E014F8010B0127782803D0582870
:100C100001D045B10AE00DB1102D07D1002714F81D
:100C2000010B102502E0082500E00A250026B04649
:100C30000EE005FB080005FB06F101271FFA80F80E
:100C400001EB1046B6F5803F00D3B94614F8010B0E
:100C5000294600F0B0F80028EBDABBF1000F05D010
:100C60000FB1641E00E05446CBF80040B9F1000F0C
:100C700006D0FFF761FC02210160C81EBDE8F09FAD
:100C800048EA0640FAE700002DE9F047814616469B
:100C90008AB0354878440DC88DE80D003248784454
:100CA000801C03AC0DC884E80D0041F69B3008445D
:100CB000372190FBF1F290FBF1F5A5F1800501FBE6
:100CC00012041B3C02D56442012000E00020DFF842
:100CD00098A080460027FA44AAF1BE0A0EE0E00779
:100CE0000AD03246684607EB470101230AEB81012F
:100CF00000F050FB8DE8070064107F1C002CEED143
:100D0000194F7F44AE3F19E0E80715D007EB0410F8
:100D10000DF1180A90E80E008AE80E00C068F04253
:100D200001D1981908903246012306A903A800F0C2
:100D300031FB03AB83E807006D10641C002DE3D189
:100D40004FF0010332466946B8F1000F03A802D004
:100D500000F00BFB01E000F01DFBC9E90001C9F840
:100D600008200AB0BDE8F087804700007546FFF70D
:100D7000A5FEAE4605006946534620F007008546AD
:100D800018B020B5FFF724FABDE820404FF0000668
:100D90004FF000074FF000084FF0000B21F0070163
:100DA000AC46ACE8C009ACE8C009ACE8C009ACE8A6
:100DB000C0098D4670473A2800D2303820F0200212
:100DC000412A01D3A2F13700884201D34FF0FF300E
:100DD000704710B50446AFF300802046BDE81040D0
:100DE000FFF7E1B94FF0013C50F8042B51F8043BF8
:100DF0009A4221D1A2EB0C03934313EACC1317D1EF
:100E000050F8042B51F8043B9A4215D1A2EB0C0385
:100E1000934313EACC130BD150F8042B51F8043B45
:100E20009A4209D1A2EB0C03934313EACC13DBD013
:100E30004FF00000704700BFD01A01BAB1FA81F13B
:100E400001F0180122FA01F0CB40C1F12001DBB220
:100E5000C0B2C01A2CFA01F3D11A914311EAC3119E
:100E6000E6D1704701491820ABBEFEE7260002001C
:100E700070475FEA400C08BF91F0000F4FEA8C23E7
:100E80004FEAC12243EA51514FEA1C5018BF00F506
:100E9000F0404FEA300018BF41F000415FEA6C5C5F
:100EA00000F02980BCF1FF3F08BF40F08040704750
:100EB000130C06BF12044FF0100C4FF0000C130E71
:100EC00004BF12020CF1080C130F04BF12010CF145
:100ED000040C930F04BF92000CF1020CD30F04BF5B
:100EE00052000CF1010C11464FF00002A0F11F005E
:100EF000A0EB0C00704711F0004F08BF704731F0B5
:100F000000413FF4D5AF0B0C06BF09044FF0100CA5
:100F10004FF0000C0B0E04BF09020CF1080C0B0F74
:100F200004BF09010CF1040C8B0F04BF89000CF104
:100F3000020CCB0F04BF49000CF1010CCCF12003D3
:100F4000A0EB0C0022FA03F302FA0CF241EA0301CF
:100F500000F10100704720F07F4C80EA030023F08D
:100F60007F47ACEB070303F57C5300F0004003F12F
:100F7000FF032DE980494FEA154B09B44FEA1443AA
:100F800025EA0B4E24EA03480FF2042606EB13274A
:100F900049083E785FEA320203FB0667C7F500079F
:100FA00007FB06F64FEA54374FEAD64606F102062B
:100FB00007FB066CCCF1005C4FEA1C472CEA074C9F
:100FC00007FB06F40CFB06F504EB15464FEA9616F4
:100FD00034BF00204FF000404FEAD13706FB07FC3A
:100FE0004FEA1C4C0CFB0BF7D21B03FB0CF761EB1D
:100FF00007010CFB0EF7B0EB074072EB17420CFB3E
:1010000008F734BFA2EB0742B2EB074261EB17418E
:101010004FEA0C444FEA910706FB07FC4FEA1C4CD1
:101020000CFB0BF7B0EBC74072EB573203FB0CF72E
:1010300034BFA2EBC742B2EBC74261EB57310CFBA6
:101040000EF7B0EBC70072EB57720CFB08F734BF1A
:10105000A2EBC702B2EBC70261EB5771039F4FEAE5
:10106000816141EA921104EBCC044FEAD1374FEA97
:10107000826206FB07FC42EA90124FEA80604FEA68
:101080001C4C0CFB0BF7D21B03FB0CF761EB0701AD
:101090000CFB0EF7B0EB074072EB17420CFB08F7A6
:1010A00034BFA2EB0742B2EB074261EB17414FEAB4
:1010B0008C554FEA910704EB9C2406FB07FC4FEA92
:1010C0001C4C0CFB0BF7B0EBC74072EB573203FB29
:1010D0000CF734BFA2EBC742B2EBC74261EB57310A
:1010E0000CFB0EF7B0EBC70072EB57720CFB08F766
:1010F00034BFA2EBC702B2EBC70261EB577115EB2D
:101100004C254FEA816141EA92114FEA82624FEA2F
:10111000D13742EA901206FB07FC44F100044FEA83
:1011200080604FEA1C4C0CFB0BF7D21B03FB0CF747
:1011300061EB07010CFB0EF7B0EB074072EB1742B7
:101140000CFB08F734BFA2EB0742B2EB074261EB9E
:10115000174115EB1C154FEA813141EA92414FEAE4
:10116000823242EA90424FEA80304FEA0C7644F1F4
:10117000000448EA03434EEA0B484FF0000EB2EB7E
:10118000080C71EB030724BF624639464EEB0E0E86
:101190004FF0000B0018524149414BEB0B0BB2EBE7
:1011A000080C71EB03077BF1000B24BF6246394644
:1011B0004EEB0E0E4FF0000B0018524149414BEB25
:1011C0000B0BB2EB080C71EB03077BF1000B24BF98
:1011D000624639464EEB0E0E51EA020718BF46F042
:1011E000010616EB0E7655F1000254F1000103D50D
:1011F000BDE88901BDE80088BDE88901BDE8004877
:10120000B619524141EB0101A3F1010370478080FF
:101210007F7E7D7C7B7A7978777676757473727150
:1012200071706F6E6E6D6C6C6B6A6A696868676608
:1012300066656464636362616160605F5F5E5E5D9A
:101240005D5C5C5B5B5A5A5959585857575656550E
:1012500055555454535352525251515050504F4F70
:101260004F4E4E4D4D4D4C4C4C4B4B4B4A4A4A49C0
:101270004949484848474747474646464545454403
:101280004444444343434342424242414141002B90
:101290009C4630D477002BD01CB54FEA370703B4F7
:1012A0004FF010004FF01001BAF1000F06D0BCF162
:1012B000000FDCBF40F0080040F008014FF00000D4
:1012C0000FBCBDE810400BF1010BBBF1010F08BFD3
:1012D0005FEA170722BF12F1010211F101014FF07D
:1012E000004143F1000300F0004043EA0000704772
:1012F000F9D35708D0E746EA064613F1400F4FEA04
:1013000016461FDD13F1200FDFBF16430A460021EA
:1013100020335B42BED0C3F1200746EA064602FAFC
:1013200007F74FEA164646EA0706C3F1200722FAF6
:1013300003F201FA07F721FA03F14FF0000342EA42
:101340000702A7E746EA020646EA06464FEA1646BD
:1013500046EA0106BCBF46EA0646360C4FF00003DB
:101360004FF000024FF0000194E72DE9804C9A46BF
:10137000934670B491E8380007C831EA400C48BF82
:1013800034EA430C03D5FFF7E6FDFFF780FFF0BC1E
:10139000BDE8008C2DE9804C9A46934670B491E8E4
:1013A000380007C810F0804F08BF13F0804F03D1FA
:1013B00000F005F8FFF76BFFF0BCBDE8008C20F0F3
:1013C0007F4780EA030023F07F4C07EB0C03A3F573
:1013D0007C5300F00040A3F1FE0392F0000F00F0F8
:1013E000B38095F0000F00F077802DE901494FEAB6
:1013F00011404FEA144621EA004800FB06FC24EAAB
:10140000064708FB06F607FB08F800FB07F718EB92
:1014100006484CEB164C4FEA124B18EB07484FEAC4
:1014200015464CEB174022EA0B4E0BFB06FC25EA57
:1014300006470EFB06F607FB0EFE0BFB07F71EEB3F
:10144000064E4CEB164C4FF000061EEB074E4CEBD5
:10145000174B18EB0B0840F1000018EB0E0B58EB84
:10146000000840F100008F1A4FF000013CBFC94353
:10147000661B14BFB5EB040C00213CBFC943F61B2F
:101480004FEA17444EEA8E0E27EA04454FEA1C47FE
:1014900004FB07622CEA074C05FB07F70CFB05F67B
:1014A00004FB0CFC16EB074642EB174216EB0C460E
:1014B00042EB1C421BEB060658EB0202414146EA96
:1014C0009E0601D5BDE80189B619524141EB0101E3
:1014D000A3F10103BDE801894FEA14454FEA114722
:1014E00024EA054621EA074C05FB07F406FB07F74B
:1014F0000CFB06F105FB0CFC11EB074144EB174418
:101500004FEA124711EB0C4144EB1C4422EA074C12
:1015100005FB07F206FB07F70CFB06F605FB0CFCC8
:1015200016EB074642EB174216EB0C4642EB1C4506
:101530006A1854F1000148BF7047B619524141EB97
:101540000101A3F10103704795F0000F37D04FEA76
:1015500011424FEA144721EA024624EA074C02FBF3
:1015600007F106FB07F70CFB06F402FB0CFC14EB7F
:10157000074441EB17414FEA154714EB0C4441EB8C
:101580001C4125EA074C02FB07F506FB07F70CFB9D
:1015900006F602FB0CFC16EB074645EB174516EB6F
:1015A0000C4645EB1C42121951F1000148BF70472F
:1015B000B619524141EB0101A3F1010370474FEA13
:1015C00014454FEA114724EA054621EA074C05FB7A
:1015D00007F106FB07F70CFB06F24FF0000605FBD0
:1015E0000CFC12EB074241EB174112EB0C4251EBA2
:1015F0001C4148BF7047921841EB0101A3F1010360
:101600007047FEE770B54FF40071114800F012FA10
:10161000104C05466079854203D000F015FA20622F
:10162000657100F011FA216A401A14280DD360790F
:1016300010B1012807D008E02079012805D1002049
:101640002071012070BD01202071002070BD0000BC
:10165000000801401800002070B54FF400611148E7
:1016600000F0E8F9104C0546E079854203D000F01F
:10167000EBF96062E57100F0E7F9616A401A14283D
:101680000DD3E07910B1012807D008E0A079012836
:1016900005D10020A071012070BD0120A0710020A3
:1016A00070BD0000000801401800002070B5134C08
:1016B000104E114B62784FF48055B04202DA104E52
:1016C000B14207DB002A14D12946184600F0B7F9C9
:1016D00001200DE00B4EB0420BDC0B48814208DCD0
:1016E000002A06D001222946184600F0A8F9002059
:1016F000607070BD0000E041000C01401800002047
:101700000000A0420000D841000096422DE9FC5F95
:101710008346002000900646019072B6414C206836
:1017200020F470002060206840F4E00020603D4814
:1017300020251430056044F2506002F065FA394FFC
:1017400010373D601E2002F05FFA206820F4700020
:101750002060206840F4000020603D60C821002027
:1017600002F00EFCF8B1C821012002F009FCD0B152
:10177000C821002002F004FCA8B10025DFF8A480F5
:10178000002427464FF4FA6908F108084FF4967AC6
:101790006006040EC821012002F0F2FBA0B1002077
:1017A0004A46414605E062B634E0401C80B29042B1
:1017B00002D80B689B06F8D4504501D944F00104C7
:1017C0007F1CFFB2082FE3D30DF805406D1CEDB26E
:1017D000052DD3D362B69DF800009DF801109DF849
:1017E000033042189DF802100B441A449DF804304F
:1017F000D2B29A420ED100B961B102F0B9FDCBF874
:1018000004009DF8020002F0B3FDCBF800000020B8
:10181000BDE8FC9F761CF6B2032EFFF47EAF0220DB
:10182000F6E70000000C0140704772B6FEE70000CA
:1018300070B5044600F008F90546601C02D0044863
:101840000078044400F000F9401BA042FAD370BDB8
:10185000500000202DE9F84FDFF8B8910024A9F1DD
:10186000040B23460F2709F1040AABF1040EC9E06B
:101870000125A5402A40AA427DD1674ED1F804C077
:10188000ACEB0608B44532D014DCBCF1030F3AD0FF
:1018900009DCBCF1000F2AD0BCF1010F1CD0BCF157
:1018A000020F31D11DE0BCF1110F17D0BCF1120FA6
:1018B0002AD119E0B8F5881F19D006DCB8F5803FA9
:1018C00015D0B8F5801F1FD111E0B8F5001F0ED05C
:1018D000B8F5041F18D10AE0CB6815E0CB681B1DD2
:1018E00012E0CB6808330FE0CB680C330CE08B6858
:1018F0002BB1012B4FF0080303D0456104E0042312
:1019000002E0056100E00023FF2A01D8064601E05D
:1019100000F104064FEA840501D9A5F12005D6F8A7
:10192000008007FA05FC28EA0C0803FA05F548EAE6
:101930000508C6F800804D68ED0062D5374DAE69E8
:1019400046F00106AE61AD6924F0030605F001051D
:101950000095334D06EB050CDCF80850A607360F52
:1019600007FA06F825EA0805DFF8B880404503D1F4
:101970004FF0000817E044E0DFF8AC80404502D1AA
:101980004FF001080FE0DFF8A480404502D14FF08E
:10199000020808E0DFF89880404502D14FF00308C4
:1019A00001E04FF0040808FA06F848EA0508CCF808
:1019B00008804D68D9F80060ED024D4601D5164308
:1019C00000E096432E604D68DAF80060AD0255469F
:1019D00001D5164300E096432E604D68DBF80060A9
:1019E000AD035D4601D5164300E096432E604D6879
:1019F000DEF80060ED03754601D5164300E096431E
:101A00002E60641C0D682A46E5407FF431AFBDE8C6
:101A1000F88F00000804014000001110001002407F
:101A20000000014000080140000C0140001001408E
:101A3000001401408068084000D0012070470AB1BE
:101A4000016170470904FBE70148806870470000A6
:101A50005000002070B5040025D094F83D0000250A
:101A600020B984F83C50204600F050F9242084F836
:101A70003D002068016821F00101016020680168D3
:101A800041F4004101602068016821F400410160D7
:101A900000F0A2FA4D4A6168914201D84C4900E039
:101AA0004C49884201D2012070BD4B492368B0FBEC
:101AB000F1F15E6826F03F060E435E606368934274
:101AC00006D94FF4967359434FF47A73B1FBF3F18F
:101AD0002368491C1E6A26F03F063143196261687B
:101AE000914210D84900401EB0FBF1F2521CC2F3E3
:101AF0000B02042A01D2042022E0B0FBF1F0401CCA
:101B0000C0F30B001CE0A268F2B301EBC10303EBCE
:101B10000116431EB3FBF6F35B1C43F480431B0525
:101B200049D092B301EBC10202EB0111401EB0FBA0
:101B3000F1F0401CC0F30B0040F4804040F4004042
:101B40002168CA694CF6FF739A431043C861D4E90F
:101B5000071001432068026822F0C00211430160AF
:101B6000D4E9030101432068826848F2FF339A43B5
:101B700011438160D4E9050108432168CA6822F055
:101B8000FF021043C86001E00EE016E02068016823
:101B900041F0010101602564202084F83D002563A7
:101BA00084F83E50002070BD01EB4106431EB3FB9C
:101BB000F6F35B1CB3E70120C2E701EB4101401ED5
:101BC000B0FBF1F0401CC0F30B00B7E7A0860100AA
:101BD00080841E0000093D0040420F002DE9FF4FA8
:101BE00083B09A46DDE9119793460446DDF84080BC
:101BF000FFF72AFF054694F83D0020287FD11923DE
:101C0000012240492046009500F074FF002876D15B
:101C100094F83C00012872D0012084F83C00206830
:101C20000168C90703D1016841F001010160206822
:101C3000016821F400610160212084F83D0040200A
:101C400084F83E0000262664C4F82480A4F82A9074
:101C5000608D20852C48E062CDE9007553465A46D8
:101C60002046049900F0C6FE70B930E02A46394695
:101C7000204600F0E5FF58B1206C042804D120680C
:101C8000016841F400710160012007B0BDE8F08FE8
:101C9000606A216800780861606A401C6062218D7A
:101CA000491E89B22185628D521E62852268536960
:101CB000DB435B070BD469B100781061606A401C9C
:101CC0006062208D401E2085608D401E6085208DC5
:101CD0000028CBD12A463946204600F0DFFE0028F6
:101CE000CAD154F83D0B016841F400710160202015
:101CF00004F81E09E67766770020C6E7FFE70220B2
:101D0000C3E70000020010000000FFFF10B586B01E
:101D100000210091019102910391006813498842CA
:101D200022D1134CA06940F00800A061A069694667
:101D300000F0080004904FF44070009012200190D1
:101D4000032003900B48FFF785FD0B48416841F0E5
:101D5000E06141F002014160E06940F40010E0619F
:101D6000E06900F40010049006B010BD005400407B
:101D700000100240000C0140000001400248816850
:101D8000027811448160704750000020074810B568
:101D9000016841F010010160032000F075F80F2088
:101DA00000F006F800F024F8002010BD00200240EA
:101DB00070B50D4D04464FF47A712878B1FBF0F000
:101DC0000A490968B1FBF0F000F0DCFA48B9102CC0
:101DD00007D200222146501E00F036F800206C6029
:101DE00070BD012070BD0000500000205C0000208C
:101DF0000C4808B5816941F001018161816901F0F8
:101E000001010091C16941F08051C161C06900F0D8
:101E1000805000900448416821F0E06141F0007179
:101E2000416008BD0010024000000140002809DBAD
:101E300000F01F02012191404009800000F1E020E4
:101E4000C0F8001170470000F0B40E4B1B680C4640
:101E5000C3F30223C3F10705042D00D90425191D7E
:101E6000072901D2002300E0DB1E012606FA05F156
:101E7000491E214099409E40761E16403143F0BCD9
:101E800001F0ABBE0CED00E0064900F00702086867
:101E90004FF6FF03184040EA0220034A104308604F
:101EA000704700000CED00E00000FA052DE9F04756
:101EB0000F46050061D0434E306800F00700B8427D
:101EC00009D2306820F0070038433060306800F0F5
:101ED0000700B84251D128683B4C810712D5400712
:101EE00003D5606840F4E06060602878000703D59F
:101EF000606840F4605060606068A96820F0F0009D
:101F0000084360602878C00728D06868012810D08E
:101F10002168022810D0890700292EDA616821F093
:101F2000030101436160FFF78FFD804641F288396C
:101F30000DE021688903EFE78901EDE7FFF784FDF4
:101F4000A0EB0801494502D90320BDE8F08760688D
:101F5000696800F00C00B0EB810FEFD1306800F041
:101F60000700B8420BD9306820F0070038433060D2
:101F7000306800F00700B84201D00120E5E728787A
:101F8000400705D56068E96820F4E06008436060B8
:101F90002878000706D56068296920F4605040EA77
:101FA000C100606000F038F86168084AC1F30311AD
:101FB000515CC8400649086006480068FFF7F8FE13
:101FC0000020C2E7002002400010024084530008B5
:101FD0005C0000205400002004480549006849685E
:101FE000044AC1F30221515CC84070475C000020E4
:101FF00000100240945300080448054900684968ED
:10200000044AC1F3C221515CC84070475C00002003
:1020100000100240945300080E4A51680E4801F027
:102020000C03042B11D0082B0FD10C48C1F38343B0
:10203000C903C05C0AD55168084AC1F34041921EE9
:10204000515C054A5043B0FBF1F0704704494843E6
:10205000704700000010024000127A00745300081C
:1020600000093D002DE9F84F040070D02078C04DE4
:10207000C00749D06868C0F38100012807D06868AC
:10208000C0F38100022809D16868C00306D528681A
:10209000800339D560680028E7D035E06068B0F586
:1020A000803F0BD010B1B0F5A02F11D0286820F4DC
:1020B00080302860286820F4802002E0286840F4FE
:1020C00080302860606890B1FFF7BEFC06460AE0E9
:1020D000286840F480202860F0E700BFFFF7B4FCD8
:1020E000801B642873D828688003F7D50CE0FFF7BD
:1020F000ABFC064605E000BFFFF7A6FC801B64288A
:10210000F0D828688003F7D420789A4E80074FF0E3
:1021100001094FF0000839D5686810F00C0F07D09E
:102120006868C0F38100022809D16868C00306D43A
:102130002868800714D52069012808D110E020699B
:10214000B0B1C6F80090FFF77FFC074605E00AE152
:10215000FFF77AFCC01B0228C4D828688007F7D58F
:102160002868616920F0F80040EAC10028600DE0AD
:10217000C6F80080FFF768FC074604E0FFF764FC40
:10218000C01B022823D828688007F7D420780007CE
:102190002CD57948A169D9B1C0F80090FFF754FC5B
:1021A000074604E0FFF750FCC01B02280FD8686AFE
:1021B0008007F7D571484FF4FA510068B0FBF1F091
:1021C000009000BF0098411E0091FAD20EE080E01E
:1021D000C0F80080FFF738FC074604E0FFF734FC46
:1021E000C01B022875D8686A8007F7D4207840079A
:1021F00060D5E8690027C00008D4E86940F0805045
:10220000E861E869012700F0805000905C480168AF
:10221000C90513D40168834641F480710160FFF75A
:1022200013FC824606E000BFFFF70EFCA0EB0A009D
:1022300064284ED8DBF80000C005F5D5E068012819
:102240000AD008B1052813D0286A20F001002862BE
:10225000286A20F0040002E0286A40F001002862A9
:10226000E06841F2883B98B1FFF7EEFB82460BE055
:10227000286A40F004002862EEE700BFFFF7E4FBA5
:10228000A0EB0A0159455AD8286A8007F6D50CE018
:10229000FFF7DAFB824605E0FFF7D6FBA0EB0A0169
:1022A00059454CD8286A8007F6D41FB1E86920F058
:1022B0008050E861E06988B36968C1F3810102294F
:1022C00044D00228C6F8608004D0FFF7BDFB044666
:1022D00038E034E0FFF7B8FB074604E0FFF7B4FB53
:1022E000C01B02282BD828688001F7D4206AB0F5DB
:1022F000803F05D16868A16820F400300843686019
:10230000D4E908010843696821F47411084368603E
:10231000C6F86090FFF798FB044606E025E000BF92
:10232000FFF792FB001B022809D828688001F7D527
:102330001BE000BFFFF788FB001B022802D9032027
:10234000BDE8F88F28688001F4D40EE00128F7D0AA
:102350006868226A00F48031914204D1616A00F415
:102360007010884201D00120EAE70020E8E7000071
:102370000010024000004242800442425C00002003
:102380000070004010B5401EB0F1807F01D30120E5
:1023900010BD4FF0E02460610F21601701F01DFCBB
:1023A0000020A06107202061002010BD10B590F82A
:1023B0003C20012A22D0012280F83C20CA688C6887
:1023C00022F4407222434C6822F4806222430C685B
:1023D00022F4006222430C6922F4805222434C69A9
:1023E00022F400522243C969002322F480420A43A6
:1023F00001684A6480F83C30002010BD022010BD06
:1024000070B590F83C20012A26D0012480F83C4089
:10241000022280F83D2003685A689D6822F0700609
:102420000A6832435A600D4B02689A4208D0B2F1F2
:10243000804F05D00A4B9A4202D00A4B9A4204D1EF
:10244000496825F080031943916080F83D400021E0
:1024500080F83C10084670BD022070BD002C014081
:10246000000400400008004010B5040003D094F8B8
:102470003D0010B107E0012010BD002084F83C00B1
:10248000204600F01FF8022084F83D00211D20683E
:1024900001F034F8012084F8460084F83E0084F806
:1024A0003F0084F8400084F8410084F8420084F83A
:1024B000430084F8440084F8450084F83D0000207F
:1024C00010BD000008B50C4A01680C48914207D1C4
:1024D000816941F400618161806900F4006009E074
:1024E000B1F1804F07D1C16941F00101C161C069FB
:1024F00000F00100009008BD002C014000100240D7
:1025000070B5044690F83C000025012817D001263C
:1025100084F83C60022084F83D002068826822F044
:10252000770222F47F4282600868502838D00DDCA0
:1025300020284FD005DC90B3102811D14AE00220AA
:1025400070BD302846D040280AD13BE060282FD00B
:1025500070280DD0B0F5805F03D0B0F5005F12D0C9
:10256000012584F83D60002084F83C00284670BDB9
:10257000CB68D1E90121206801F009F82068816861
:1025800041F0770109E0CB68D1E90121206800F032
:10259000FEFF2068816841F480418160E1E719E035
:1025A000CA684968206801F0A7F85021206806E051
:1025B000CA684968206801F0B0F86021206800F01E
:1025C000F0FFCEE7CA684968206801F095F840211D
:1025D0002068F4E7226801461046F0E710B586B09F
:1025E000002100910191029103911B4C03681B484B
:1025F00002210322A34211D1836943F004038361C2
:102600008069039200F004000490C801CDE9000144
:1026100069461348FFF71EF906B010BDB3F1804FAD
:10262000FAD1836943F0080383618069039200F063
:10263000080004904FF48060CDE900016946094824
:10264000FFF708F90848416821F4407141F0E06162
:1026500041F400714160DFE7002C014000100240AE
:1026600000080140000C01400000014070B5044624
:1026700090F83C0000260D4601280FD0012084F878
:102680003C006AB1042A1DD0082A2FD00C2A3FD062
:102690000126002084F83C00304670BD022070BD49
:1026A000206800F087FF2068816941F0080181619E
:1026B0002068816921F004018161206881692A69AB
:1026C000114311E0206800F09DFF2068816941F40A
:1026D000006181612068816921F4806181612068E5
:1026E00081692A6941EA02218161D2E7206800F00C
:1026F000B5FF2068C16941F00801C1612068C16966
:1027000021F00401C1612068C1692A69114311E007
:10271000206800F0CFFF2068C16941F40061C16109
:102720002068C16921F48061C1612068C1692A699A
:1027300041EA0221C161ACE710B5040003D094F86E
:102740003D0010B107E0012010BD002084F83C00DE
:10275000204600F01EF8022084F83D00211D20686C
:1027600000F0CCFE012084F8460084F83E0084F896
:102770003F0084F8400084F8410084F8420084F867
:10278000430084F8440084F8450084F83D000020AC
:1027900010BD704710B50446022249B104290ED07D
:1027A000082913D094F84100012816D0012010BD4B
:1027B00094F83E000128F9D184F83E200FE094F807
:1027C0003F000128F2D184F83F2008E094F840004F
:1027D0000128EBD184F8402001E084F84120012257
:1027E000206800F0C7FE0F492068884203D1426C80
:1027F00042F4004242642068884208D0B0F1804F21
:1028000005D00949884202D00849884204D181682C
:1028100001F00701062903D0016841F001010160C0
:10282000002010BD002C01400004004000080040C2
:1028300070B5040004D094F84100002510B106E002
:10284000012070BD84F84050204600F023F8242079
:1028500084F841002068C16821F40051C16020461D
:1028600000F094FF2068016921F490410161206823
:10287000416921F02A0141612068C16841F4005199
:10288000C1606564202084F8410084F842006563DB
:10289000002070BD30B585B00024009401940294EE
:1028A000039400681B49884232D11B48816941F476
:1028B00080418161816901F480410491816941F025
:1028C000080181618069154D00F0080004904020E6
:1028D0000090022001900320039069462846FEF7ED
:1028E000B9FF8020CDE90004694628460294FEF72E
:1028F000B1FF0B48416841F0E06141F004014160E3
:10290000002211462520FFF79FFA2520FFF78EFAB7
:1029100005B030BD0038014000100240000C0140FD
:10292000000001402DE9F843044690F84100984624
:1029300016460D46202802D00220BDE8F88385B156
:102940007EB100206064212084F84100FFF77CF80C
:10295000A6848146E684A0682027B0F5805F02D077
:1029600003E00120E9E7206910B12E4600250EE0C2
:1029700000260CE08021204600F064FFA8B9C6B113
:1029800016F8010B21684860E08C401EE084E08C62
:102990004B464FF00002CDF800800028EAD14FF0FE
:1029A0004001204600F04EFF40B184F84170032002
:1029B000C3E735F8020BC0F30800E3E784F8417081
:1029C0000020BAE7FEE701684A69D24352050FD4F6
:1029D0006FF480624A61002140F8301F2022427368
:1029E0008173026942F004020261017301207047A1
:1029F000002070472DE9F843044600680D46DDE9E4
:102A0000089701689846164641F4807101604B466C
:102A100000224FF001112046009700F06BF848B1FA
:102A200020680068C00502D54FF4007020640320C0
:102A3000BDE8F883216805F0FE0008613B464A4680
:102A40001549204600F09EF888B9206841698069E0
:102A500000903A464946204600F0F2F848B1206C12
:102A6000042804D12068016841F40071016001204C
:102A7000DEE7F5B2B8F1010F09D02168300A08612C
:102A80003A464946204600F0DBF80028E7D12068A6
:102A900005610020CCE700000200010070B5164679
:102AA0000D4604461EE02046FFF78DFF08B10120C9
:102AB00070BD681C16D0FEF7C7FF801BA84200D867
:102AC00085B920684069C04340070BD5002044F811
:102AD000300F20216173A073216941F02001216131
:102AE0002073E4E720684069C0434007DBD400203E
:102AF00070BD00002DE9F047984617460D46044684
:102B0000C1F30746DDF820902AE000BFB8F1FF3F8F
:102B100026D0FEF799FFA0EB0901414502D8B8F194
:102B2000000F1DD12068012E16D0806925EA000013
:102B30000004000C12D00020B84211D1002044F84B
:102B4000300F20216173A073216941F020012161C0
:102B500020730120BDE8F0874069E7E70120EBE73B
:102B60002068012E0AD0806925EA00000004000CCC
:102B700006D00020B842C9D00020EBE74069F3E757
:102B80000120F7E72DE9F047984616460D46044622
:102B90004FF000094FF0200AC1F3074723E02068F7
:102BA0004069C043400515D42068016841F40071B4
:102BB000016021686FF480604861C4F8309084F847
:102BC0003DA084F83E90216C41F00401216484F81A
:102BD0003C9021E0701C06D0FEF736FFA0EB080009
:102BE000B04203D816B1012F1FD021E02068012F79
:102BF00015D0806925EA00000004000C18D000BF41
:102C000044F8309F84F80DA084F80E90216941F0BB
:102C10002001216184F80C900120BDE8F087406913
:102C200025EA00000004000CEAD12068406901E0B8
:102C30002068806925EA00000004000CAFD1ECE7B1
:102C400070B516460D4604461EE02046FFF7BBFE53
:102C500008B1012070BD681C16D0FEF7F5FE801B80
:102C6000A84200D885B920684069C04300060BD54A
:102C7000002044F8300F20216173A073216941F0D6
:102C8000200121612073E4E720684069C043000609
:102C9000DBD4002070BD000070B51E2802D20024D5
:102CA000224609E05A2801D2012404E0962801D2E4
:102CB000022400E003240122104D02212846FEF7E1
:102CC000BEFE012C01D0012200E000220421284692
:102CD000FEF7B5FE022C01D0012200E000220821FF
:102CE0002846FEF7ACFE032C01D0012200E00022B2
:102CF0002846BDE870401021FEF7A1BE0008014043
:102D00002DE9F04186B000242A48009401940294F1
:102D10000394816941F020018161816901F0200102
:102D20000491816941F004018161816901F004012C
:102D30000491816941F00801816180691E4F00F0B2
:102D40000800049001221E213846FEF778FEDFF8C5
:102D50006C80002203214046FEF771FE0122110320
:102D60004046FEF76CFE1E2001250326CDE9000536
:102D7000CDE9024669463846FEF76CFD41F2030094
:102D8000CDE90005CDE9024669464046FEF762FD01
:102D90004FF420608DE8310069463846FEF75AFD51
:102DA00020208DE8310069464046FEF753FD06B00D
:102DB000BDE8F0810010024000080140000C014015
:102DC0000D4810B50B4901600C49416000214FF4DA
:102DD00080428160C0E9031241618161C161016289
:102DE000FEF738FE002803D0BDE81040FEF71DBDF9
:102DF00010BD000000540040E0000020A08601004B
:102E000010B596B000240F9410941194129413945A
:102E10001C2108A81494FDF764FB20216846FDF7E7
:102E200060FB29482749016040F2CF21C0E9011425
:102E300040F2CF71C0E9031444618461FFF714FBD1
:102E400008B1FEF7F2FC4FF480500F900FA91E4816
:102E5000FFF756FB08B1FEF7E8FC1B48FFF76CFCD8
:102E600008B1FEF7E2FC139413A917481494FFF776
:102E7000C7FA08B1FEF7D9FC6020CDE908040A942E
:102E80000B940C940D94002208A90F480E94FFF7A0
:102E9000EDFB08B1FEF7C9FC00944FF40050CDE9FA
:102EA0000440029401940394694607480794FFF78D
:102EB0007DFA08B1FEF7B9FC0348FFF78FFB16B0A7
:102EC00010BD0000002C01403401002010B58EB070
:102ED00000240794089409940A940B941C216846D2
:102EE0000C94FDF7FEFA1E484FF080410160472127
:102EF000C0E9011444F61F61C0E903148461FFF7BF
:102F0000B3FA08B1FEF791FC4FF48050079007A97F
:102F10001348FFF7F5FA08B1FEF787FC1048FFF7F2
:102F20000BFC08B1FEF781FC0B940BA90C480C9428
:102F3000FFF766FA08B1FEF778FC6020CDE90004DF
:102F400002940822694606480494FFF78FFB08B1F3
:102F5000FEF76BFC0248FFF741FB0EB010BD00000E
:102F60007C01002010B50E4C0C480C2120604FF461
:102F7000E13060600020A060E060C4E90401A0616D
:102F8000E0612046FFF754FC08B1FEF74EFC2068D4
:102F9000C16841F02001C16010BD0000003801404F
:102FA00004020020FEE7FEE770B5002404F1B00043
:102FB000C0B200F013F9002000F010F9102000F06A
:102FC0000DF90025002000F01BF96D1CEDB2802DDD
:102FD000F8D3641CE4B2082CE8D370BD70B5C820E7
:102FE000FEF726FC044D0024285D00F0F7F8641C71
:102FF000E4B2172CF8D370BD0000002010B50446D1
:10300000B031C8B200F0EAF8102040EA141000F025
:10301000E5F804F00F00BDE8104000F0DFB8000054
:103020002DE9F0411E4615460F468046FFF7E6FFA4
:103030000F48002400EB4515285D0EB1C043C0B217
:1030400000F0DEF8641CE4B2102CF5D37F1CF9B25A
:103050004046FFF7D3FF1024285D0EB1C043C0B235
:1030600000F0CEF8641CE4B2202CF5D3BDE8F0816A
:10307000F24E00082DE9F047203A0024089E0F4642
:103080008146D5B27F2803D900208F1C8146FFB22C
:10309000102B394612D0FFF7B1FF1B4905EB450055
:1030A00001EB4005285D0EB1C043C0B200F0A8F8A6
:1030B000641CE4B2062CF5D3BDE8F087FFF79EFF51
:1030C000DFF8488004EB051118F801000EB1C04389
:1030D000C0B200F095F8641CE4B2082CF2D37F1C57
:1030E000F9B24846FFF78AFF0024474604EB051073
:1030F0003844007A0EB1C043C0B200F081F8641CBD
:10310000E4B2082CF2D3D7E7EA46000812490008D7
:103110002DE9FF4F81B00026DDE90EA91D4693463B
:10312000804634464FEA5A0727E0281B401EC1B2AA
:103130000A2000F01DFFBBFBF0F00A21B0FBF1F20A
:1031400001FB120026B9691E8C4201DA48B1012642
:103150003030C2B207FB0480C0B25346CDF80090B5
:1031600006E007FB0480C0B253462022CDF8009051
:103170000299FFF77FFF641CE4B2AC42D5D305B0DF
:10318000BDE8F08F2DE9F8431E46174689460446F0
:103190000025DDF8208014E0334649462046CDF86E
:1031A0000080FFF767FF0C2E10D00834E4B27A2CB1
:1031B00001D90C2E0CD0782C01D9102E08D06D1C02
:1031C000EDB27A5D002AE7D1BDE8F883A41DEDE7F2
:1031D00009F10100002400F0FF09F0E701B584B017
:1031E00001214FF4807204A88DE807000B460022ED
:1031F00078210248FEF7F2FC05B000BDE000002097
:1032000001B584B001214FF4807204A88DE8070055
:103210000B46402278210248FEF7E0FC05B000BDD5
:10322000E00000202DE9F0410F4606464FF08044B3
:10323000014622461F4800F059F805461D4822461F
:103240003946203000F052F804461B491B481C4AFE
:103250008E4203DB864202DC954200DA0025194BE0
:1032600019499F4203DB8F4202DC944200DA0024BA
:10327000164A864202DD954200DA15468F4202DD8B
:10328000944200DA14462146284601F085F901D21D
:10329000284600E020460E49884201DD084603E04A
:1032A00010F1FF4F00D3002001F042F880B2BDE8DA
:1032B000F0810000A00000200000D0410000DC41AF
:1032C00000007A440000904200009A420000FA4553
:1032D000003E9C4670B50DF1100C9CE870001EC0BD
:1032E000002102C080E8620070BD00002DE9F041BD
:1032F00090460A460446C168104601F07FF92769E6
:103300000546B0F5000F0CDB414601F079F839466F
:1033100000F0AAFE2061E16901F03EF90FD2E069F8
:103320000CE01C4EB5420AD3414601F069F839461B
:1033300000F09AFE2061B04201D3002020612846AF
:10334000616901F05BF9414600F0FCFE01466561F0
:10335000A06801F055F807462169606801F050F84F
:1033600006462946206801F04BF8314600F07CFE05
:10337000394600F079FE0546E16901F00DF900D209
:10338000E569A169284601F007F800D2A569284639
:10339000BDE8F0810000808001490968C86370477A
:1033A0007C0100200149096848637047340100200E
:1033B0002DE9F0410546032230A1FDF747F800262C
:1033C0002F4C0127C8B103222EA12846FDF73EF855
:1033D000B8B102222CA12846FDF738F8A0B102228C
:1033E0002AA12846FDF732F8002808D1A81CFDF7CD
:1033F00001F8002822DA002023E02770E670BDE8FB
:10340000F0812670E770FAE7A81CFCF7F3FF0028AC
:1034100001DA002002E0B42800DDB42080B2A081EF
:10342000C8214843B421B0FBF1F0323080B2FFF73D
:10343000B9FFA089BDE8F041FFF72EBC642800DD8C
:10344000642044F61F614843642190FBF1F00004BE
:10345000000C0F4D608101D0012200E0002201210B
:103460002846FEF7ECFA002202212846FEF7E7FA8A
:103470006089BDE8F041FFF78FBF00004D3A300092
:10348000180000204D3A3100533A0000463A00003F
:10349000000C014070477047FEF770BC30B58FB02C
:1034A00028216846FDF71DF814210AA8FDF719F830
:1034B00001210804CDE900100024029402250491A2
:1034C000CDE907504FF4E01009906846FEF7CAFDB9
:1034D00008B172B6FEE70F20CDE90A054FF480600F
:1034E000CDE90C4002210AA80E94FEF7DFFC00286B
:1034F00001D072B6FEE70FB030BD7047F0B502687C
:10350000194B1A4C1A4D4FF08047984205D0B842DB
:1035100003D0A04201D0A84203D122F070064A682D
:103520003243984205D0B84203D0A04201D0A8420D
:1035300003D122F44074CA6822434C6922F080020D
:10354000224302608A68C2620A688262984201D19C
:1035500009690163012141610169C90703D001695A
:1035600021F001010161F0BD002C01400004004088
:103570000008004010B501F01F030121046A9940C2
:103580008C430462016A9A401143016210BD10B578
:10359000846842EA032224F47F440A43224382607F
:1035A00010BD826822F070020A4342F00701816078
:1035B0007047000030B5036A026A22F0010202621D
:1035C0004268846924F073050C682C4323F00205DB
:1035D0008B682B430A4DA8420BD123F00805CB681A
:1035E00022F440722B434D6923F0040315438A698A
:1035F0002A434260846149684163036230BD000030
:10360000002C014030B5026A036A23F01003036204
:10361000436884690D6824F4E64444EA05248D680F
:1036200022F0200242EA05120B4DA8420ED1CD68CD
:1036300022F0800242EA05124D6923F4406343EA16
:1036400085038D6922F0400243EA8503436084616B
:1036500049688163026230BD002C014030B5036AC5
:10366000026A22F4807202624268C46923F4007321
:1036700024F073050C682C438D6843EA05230C4D38
:10368000A8420ED1CD6823F4006343EA05234D69B7
:1036900022F4405242EA05128D6923F4806342EA23
:1036A00005124260C4614968C163036230BD000015
:1036B000002C014030B5046A026A22F48052026292
:1036C0004268C3690D6823F4E64343EA05238D6825
:1036D00024F4005444EA0534064DA84204D14D694F
:1036E00022F4804242EA85124260C3614968016463
:1036F000046230BD002C014010B5036A046A24F056
:1037000001040462846924F0F00444EA021423F002
:103710000A020A438461026210BD10B5036A046A9A
:1037200024F010040462846923F0A00324F470449C
:1037300044EA023243EA01118261016210BD01686C
:103740000C3151E8002F22F4907241E80023002B45
:10375000F5D10168143151E8002F22F0010241E84F
:103760000023002BF5D1016B012909D101680C312F
:1037700051E8002F22F0100241E80023002BF5D180
:10378000202180F8421000210163704770B5044683
:1037900000680169E26821F4405111430161216927
:1037A000A0680843616908432168CA6841F20C6354
:1037B0009A430243CA6020684169A26921F44071BA
:1037C000114341611E492068884202D1FEF714FC72
:1037D00001E0FEF701FC00EBC00101EB00126068A4
:1037E00064218000B2FBF0F3B3FBF1F36FF0180635
:1037F0007343B2FBF0F5B2FBF0F605EB8305322321
:1038000003EB0515B5FBF1F5B6FBF1F605F0F00598
:1038100005EB0615B2FBF0F6B2FBF0F0B0FBF1F0F1
:103820006FF01802504306EB800003EB0010B0FB72
:10383000F1F0216800F00F002844886070BD00009E
:10384000003801402DE9F843984617460D460446D6
:10385000089E24E0701C22D0FEF7F6F8A0EB0800CA
:10386000B0421AD8CEB12068C168490717D5802D5B
:1038700015D0402D13D00168C94309070FD4016842
:103880000025406800902046FFF759FF082060643B
:1038900084F840500120BDE8F8830320FBE720684E
:1038A000006835EA000004D00020B842D2D00020E1
:1038B000F1E70120F9E7000078B5124802681068C6
:1038C0004FF0000380060ED550680F4DC4B2287823
:1038D00048B90F490D4E0A2C08780BD03F2802D268
:1038E0003454401C08701068000702D510685068F6
:1038F000009078BD074C33542070012028700B7065
:10390000F1E70000040200204C000020C401002068
:103910004E0000204D00002010B50446FCF777FD56
:10392000214682B2BDE8104064230148FEF7FABF89
:10393000040200202DE9F041404C0F4686B01D46A0
:1039400016468046E16A00F0BFFC0AD13846216B7A
:1039500000F0BAFC05D1E089864202D1208A854276
:1039600069D0C4E90B87E6812582FFF71DFB0023A0
:10397000172219461846FFF753FB00231922194650
:103980001020FFF74DFB404600F042FB02460B467D
:103990002BA102A8FCF72EFC0024102302AA21462A
:1039A00020200094FFF7EEFB002318220221184686
:1039B000FFF736FB0023192202211020FFF730FB0E
:1039C000384600F025FB02460B4620A102A8FCF772
:1039D00011FC102302AA022120200094FFF7D2FB41
:1039E00000231A2204211846FFF71AFB00231B228A
:1039F00004211020FFF714FB102317A2042122201A
:103A00000094FFF7BFFB1027CDE900740523324671
:103A100004212A20FFF77CFB102310A2062100209E
:103A20000094FFF7AFFBCDE9007403232A4606217B
:103A30003020FFF76DFB06B0BDE8F08118000020D4
:103A40003A20252E31662043000000003A20252E22
:103A500031662025250000003A000000536572768B
:103A60006F3A000008B5FFF79FFA002304221946B9
:103A70001820FFF7D5FA0023052219462820FFF762
:103A8000CFFA0023202219463820FFF7C9FA002375
:103A9000212219464820FFF7C3FA002010230DA267
:103AA00004210090FFF76EFB00231122042138202F
:103AB000FFF7B6FA0023122204214820FFF7B0FADC
:103AC00001B000231322042158205DF804EBFFF716
:103AD000A7BA0000413233363131320070B50646A4
:103AE0001D480D4686B0017A8E4202D1816A8D4210
:103AF00030D006728562FFF757FA0024102317A210
:103B0000214620460094FFF73DFB4FF01003009440
:103B100046B115A202210020FFF734FB102316A2A4
:103B2000009407E017A202210020FFF72BFB1023CF
:103B300017A2009404210020FFF724FB2A4618A1B5
:103B400001A8FCF757FB102301AA062100200094CE
:103B5000FFF718FB06B070BD1800002053656C65B8
:103B60006374204D6F6465003E4D616E75616C201D
:103B70004D6F646500000000204175746F204D6F2B
:103B8000646500003E4175746F204D6F64650000F0
:103B9000204D616E75616C204D6F64650000000002
:103BA000436F756E74646F776E3A256C7500000014
:103BB000FEE7490050EAC12018BF04204A0D18BF93
:103BC00040F0010040F2FF72B2EB515F08BF40F0DD
:103BD0000200012808BF052070470907090E0028C8
:103BE00004DB00F1E02080F80014704700F00F00C3
:103BF00000F1E02080F8141D704730380A2801D207
:103C000001207047002070470549064A0968B1FB4A
:103C1000F2F1414300E000BF491EFCD270470000B2
:103C20005C00002000093D001FB5FEF7AFF8FFF76C
:103C300035FCFFF765F8FFF7C3F8FFF7E1F8FFF78A
:103C400045F9FFF78FF9FFF7C9F9FFF7ADF9002143
:103C5000AD48FEF79FFDAD48016841F400410160A9
:103C60000821AB48FEF796FD0026AB48CDE90006DB
:103C7000AA4DA84C2B46AA4AAA490294AA48FFF783
:103C800029FBAA48CDE90006A748A94B2A46A9491D
:103C900002942030FFF71EFBA74CC821B425A08951
:103CA0004843B0FBF5F0323080B2FFF77BFB0020D9
:103CB000FFF772FBA14F002201213846FDF7BFFE3E
:103CC000002202213846FDF7BAFE012211033846D0
:103CD000FDF7B5FE9A4F012202213846FDF7AFFEEF
:103CE000012204213846FDF7AAFE012208213846A8
:103CF000FDF7A5FE012210213846FDF7A0FEFFF7D3
:103D0000B1FE40F6B830FDF793FD0120E070FDF7FD
:103D10009BFE8046A6813220FFF744FBA089FEF778
:103D2000BBFF41F26F7A4FF47A7B00BFFDF78CFE48
:103D3000A0EB0807AAEB0700B0FBFBF9FDF762FC5C
:103D40000646FDF789FC1EB1E178E9B30021E17078
:103D500018B1A189C9B33C39A18106430BD0A08910
:103D6000C8214843B0FBF5F0323080B2FFF71AFBB0
:103D7000A089FEF791FF4946E078FFF7AFFE41F2D8
:103D800088308742D2D30026A6810127A77032202F
:103D9000FFF708FBA089FEF77FFFE078D0B126701F
:103DA000FDF752FE4FF4FA6ADFF89891C4F81C0050
:103DB000FDF74AFEE169411A51456AD3E06102A864
:103DC000FDF7A4FC40B12DE000E001E00121BEE7D9
:103DD000A581C2E72770E3E75B49029800F010FB7A
:103DE00080466069DDF80CB00090B0F5000F17DB7D
:103DF0000146404600F002FC0746A1695846019181
:103E000000F0FCFB51498F4208DC51498F4205D834
:103E10005049884202DC5049884201D9DDE9008BD3
:103E2000C4E9058B2078A8B1D4E90501FFF7FAF9B8
:103E3000608108B1012200E00022404F0121384694
:103E4000FDF7FDFD002202213846FDF7F8FD6089EF
:103E5000FFF7A2FAD4E90501FDF728FCA3896289DE
:103E6000D4E90501FFF766FDA06900F0D1F8074627
:103E70008846606900F0CCF802462B48CDE900780E
:103E80000B4636A14038FCF7B5F927484038FFF714
:103E900043FD207850BBFDF7B5FB0746FDF7DCFB83
:103EA00037B1A1893C3189B2A181B42900D9A68159
:103EB00018B1A18929B33C39A181074316D0A08943
:103EC0003C21B0FBF1F1491CA170C8214843B0FB73
:103ED000F5F0323080B2FFF765FAA089FEF7DCFE1C
:103EE000A3896289D4E90501FFF724FD99F8000050
:103EF0004F4600283FF45CAF1C48FFF759FA3E706C
:103F000056E7A581D9E7000034010020442C014088
:103F10007C010020003E9C460000DC410000C842BD
:103F20000000FA4300401C45A000002000009A4217
:103F3000000048420080BB4418000020000C0140F3
:103F4000000801404C0000201F856B3F000020410D
:103F5000000020C10000F0410000F0C1543A252EBD
:103F600031662C483A252E31660D0A00C401002026
:103F70000246012000E05043491EC9B2FBD27047FF
:103F800070B50C460546084E08E03068C0F3401096
:103F9000A8424FF0010005D0FFF736FE2046641E10
:103FA000A4B2F2D270BD0000080C014010B5002987
:103FB0000AD00878002807D005487844FCF712FF9B
:103FC000002801D0002010BD0248784410BD000038
:103FD000961400008E14000010B500290AD008784D
:103FE000002807D005487844FCF7FCFE002801D0E3
:103FF000002010BD0248784410BD00008614000067
:104000007E1400000808A0F500114FEA3101704746
:1040100043004FEAD30C4FEA3C0C43401FBF40071C
:104020000CF1605113F0FE4F70471CF0006F03D18C
:1040300000200CF0004170470CF0004343EA507040
:1040400010B540EACC0000F05CFA00BF000000921E
:104050004FEA0001FFF7D6BF4FF000414FF00000DC
:10406000A1F500217047000090EA010F48BF81F0E0
:10407000004100F1CA82421A3CBF801A89184FEAF7
:10408000D0524FF07F4C1CEA410FA2EBD15318BF26
:104090009CEA026F00F03B804FF0004C4CEA00209D
:1040A0004CEA012121FA03FC10EB0C0C1ED202F1A8
:1040B000FF325FEA1C2040EBC25038BF70471CF053
:1040C0007F0F4FEA400C18BFBCF17F4F38BF7047DD
:1040D000C3F12003994008BF20F00100BCF17F4FDD
:1040E00038BF7047A0F1C04000F051BA4FEA3C0021
:1040F000000A40EBC25028BF1CF0FF0F4FEA400CF3
:10410000E6D018BFBCF17F4F38BF7047EAE79CEAA2
:10411000026F05D010EA5C0F08BF00F00040704746
:1041200010B500F0EEF900BF64FBBE3E401058BF72
:10413000C0F14040491058BFC1F140418142EFF306
:10414000008070474FF47F0C1CEAD0121EBF1CEA9F
:10415000D11392EA0C0F93EA0C0F00F0858090EADD
:10416000010F48BF42F4807240F4000C41F400009B
:104170002CF07F4120F07F4000B58142A2EB03028A
:104180000FF2081CACEB504EC0F100009EF800E0AE
:104190004FEA4E0E00FB0EFC38BF49004FEA2C1CC4
:1041A00002F5FA020CFB0EF34FEACE1E4FEA112C79
:1041B0004FEAC1210EEB635E42EB22420EFB0CFC88
:1041C0004FEA1C5300FB03114FEA112C4FEA013157
:1041D0000EFB0CFC4FEADC4C00FB0C11C14228BF6B
:1041E00009184CEB03335DF804EB10EB410143EB92
:1041F000C250B2F57C0F38BF704729D512F0F00FCE
:104200001CBF00F1C04000F0004070470081828375
:104210008485868788898B8C8D8E8F9192939596D5
:1042200097999A9C9D9FA0A2A3A5A7A8AAACAEB05F
:10423000B2B3B5B7B9BCBEC0C2C5C7C9CCCED1D464
:10424000D7D9DCDFE2E6E9ECF0F3F7FAFE00000094
:104250004FEA400C0CF1807CBCF17E4F28BF7047C8
:10426000B0F1C04000F093B990EA010F0CEAD1130D
:1042700048BF42F48072624538BF634507D213F4E9
:104280007F0F16D080EA010000F00040704710B5A3
:1042900000F037F9097EFC3E00F005B880EA010025
:1042A00000F00040704780EA010000F0004000F09C
:1042B0006EB912F47F0F04BF0248704780EA010014
:1042C00000F065B90000C07F50EA010C00F11380D6
:1042D0001CF5000F58BFBCF5000F01D48842704791
:1042E00007D710F5000F58BF11F5000F15D48842FD
:1042F0007047894270471CF5000F04D5BCF5000FCC
:10430000F7D5814270474FF0807C1CEB400F38BFDF
:104310001CEB410F01D28142704710B500F0F1F85B
:10432000922449004FF000504FF08051FFF7FEBE3D
:10433000C10DD1F19E0206DB4FEA002343F000439A
:1043400023FA02F07047004207D54FEA4001B1F16D
:10435000FE4F02D24FF00000704710B500F0D1F8C8
:1043600049922480002070476FEA200070470000C7
:10437000B0FA80F310FA03F2C3F19D030AD0D90515
:1043800001EB1220530638BF704700F1010008BF4F
:1043900020F001007047000050EA010C00F113808A
:1043A0001CF5000F58BFBCF5000F01D488427047C0
:1043B00007D710F5000F58BF11F5000F15D488422C
:1043C0007047894270471CF5000F04D5BCF5000FFB
:1043D000F7D5814270474FF0807C1CEB400F38BF0F
:1043E0001CEB410F01D28142704710B500F089F8F3
:1043F000922449004FF000504FF08051FFF796BED5
:104400004FF47F0C1CEAD0121EBF1CEAD11392EAB3
:104410000C0F93EA0C0F00F0478090EA010F48BFA1
:1044200042F480724FF0004C4CEA00204CEA01212B
:1044300002EB0302A0FB0113A2F50002002918BF42
:1044400043F001035B0028BF4FEA330342EB2242F3
:104450005FEA132C4CEBC2502EBFBCEB436FB2F59E
:104460007C0F70474FEA036CBCF1004F08BF20F08F
:104470000100B2F57C0F38BF70470BD582F0FF0208
:1044800012F5803FC8BF704700F1C040D8BF00F0B0
:104490000040704700F5000C5FEA4C0C48BF7047C5
:1044A000B0F1C04000F073B890EA010F0CEAD113EC
:1044B00048BF42F48072624538BF634504D280EA47
:1044C000010000F00040704710B500F01AF800BF7E
:1044D0008900013E00F007B800F009B85FEA410C1E
:1044E0005FEA1C6C08D080EA010000F050B85FEA77
:1044F000400C5FEA1C6CF6D14FF00040A0F5800044
:1045000070470EF1020E2EF0030E5EF8044B2442AB
:1045100004D44FEA4102B2F17F4F11D84FEA400371
:10452000B3F17F4F0CD80ED14FEAD07CB2F17F4F60
:104530000CEB4C0C0CF1020C08BF4CEBD17C04E0F2
:104540004FF0080C01E04FEAD17C0CEB4C0324FA4D
:1045500003F404F00704B4F1040C06D20EEB840C4F
:10456000BDE810404CF0010C6047DFE80CF0070894
:1045700002024FF00040A0F5800010BD0846420046
:1045800018BFD2F1807288BF00F0004010BDFF213B
:1045900041EAD050C005704751EA000C00F1138089
:1045A0001CF5000F58BFBCF5000F01D481427047C5
:1045B00007D711F5000F58BF10F5000F15D4814231
:1045C0007047894270471CF5000F04D5BCF5000FF9
:1045D000F7D5884270474FF0807C1CEB410F38BF05
:1045E0001CEB400F01D28842704780EA010081EA4B
:1045F000000180EA0100FFF7F8BE000090EA010F19
:1046000048BF81F000413FF536AD421A04D882F030
:104610000042A0EB020011444FEAD0524FF07F4C11
:104620001CEA410FA2EBD15318BF9CEA026F4AD09B
:104630004FF0004C4CEA00204CEA012121FA03FC27
:10464000B0EB0C0C0FD412F0FE0F36D05FEA4C002A
:104650001DD5001240EBC25038BF70471CF03F0F11
:1046600018BF70470BE0A2F101025FEA1C2040EB8B
:10467000C25038BF70471CF07F0F18BF7047C3F19E
:104680002003994014BF401E20F0010070478008AD
:104690004FEA122308BF7047B0FA80FCA2EB0C026D
:1046A000CCF1280C60FA0CF093EA122F04BF00EB57
:1046B000C25070474FEAC3707047130A5FEADC10BC
:1046C00008BF7047F6E79CEA026F04D010EA5C0F5F
:1046D00008BF0020704710B5FFF713FF40DFF63E1C
:1046E00081F000407047FCF75DB80000000000005A
:1046F0000000002F000000000700070000147F14D6
:104700007F1400242A7F2A120062640813230036D3
:104710004955225000000503000000001C22410002
:10472000000041221C000014083E08140008083E46
:104730000808000000A06000000808080808000041
:1047400060600000002010080402003E5149453E10
:104750000000427F4000004261514946002141452E
:104760004B31001814127F10002745454539003C95
:104770004A49493000017109050300364949493663
:1047800000064949291E0000363600000000563652
:104790000000000814224100001414141414000036
:1047A0004122140800020151090600324959513EC4
:1047B000007C1211127C007F49494936003E41417C
:1047C0004122007F4141221C007F49494941007F2D
:1047D00009090901003E4149497A007F0808087F1C
:1047E0000000417F4100002040413F01007F08144C
:1047F0002241007F40404040007F020C027F007F4A
:104800000408107F003E4141413E007F090909062E
:10481000003E4151215E007F091929460046494961
:1048200049310001017F0101003F4040403F001F2E
:104830002040201F003F4038403F006314081463AD
:1048400000070870080700615149454300007F4197
:10485000410000552A552A55000041417F000004BF
:1048600002010204004040404040000001020400F8
:10487000002054545478007F48444438003844445D
:10488000442000384444487F0038545454180008E9
:104890007E0901020018A4A4A47C007F0804047807
:1048A0000000447D4000004080847D00007F10288F
:1048B00044000000417F4000007C04180478007C24
:1048C0000804047800384444443800FC24242418A4
:1048D0000018242418FC007C0804040800485454E0
:1048E000542000043F444020003C4040207C001CF9
:1048F0002040201C003C4030403C0044281028440C
:10490000001CA0A0A07C004464544C441414141453
:10491000141400000000000000000000000000006F
:104920000000000000F8000000000000003330002C
:10493000000000100C06100C060000000000000033
:10494000000040C07840C0784000043F04043F04A9
:104950000400007088FC08300000001820FF211EB1
:104960000000F008F000E018000000211C031E21E8
:104970001E0000F00888700000001E212324192763
:10498000211010160E0000000000000000000000C2
:104990000000000000E018040200000000071820DA
:1049A000400000020418E00000000040201807004A
:1049B0000000404080F0804040000202010F0102F0
:1049C0000200000000F0000000000101011F0101D1
:1049D0000100000000000000000080B07000000036
:1049E00000000000000000000000000101010101C2
:1049F0000101000000000000000000303000000055
:104A0000000000000000806018040060180601002B
:104A1000000000E010080810E000000F1020201037
:104A20000F00001010F8000000000020203F2020A0
:104A30000000007008080888700000302824222137
:104A400030000030088888483000001820202011ED
:104A50000E000000C02010F8000000070424243FCE
:104A6000240000F808888808080000192120201177
:104A70000E0000E0108888180000000F112020119F
:104A80000E0000380808C83808000000003F000089
:104A900000000070880808887000001C2221212274
:104AA0001C0000E010080810E00000003122221174
:104AB0000F00000000C0C000000000000030300007
:104AC0000000000000800000000000008060000086
:104AD00000000000804020100800000102040810BF
:104AE00020004040404040404000040404040404CE
:104AF000040000081020408000000020100804027C
:104B00000100007048080808F0000000003036017D
:104B10000000C030C828E810E0000718272423143C
:104B20000B000000C038E0000000203C23020227F8
:104B3000382008F8888888700000203F2020201145
:104B40000E00C03008080808380007182020201080
:104B5000080008F808080810E000203F2020201076
:104B60000F0008F88888E8081000203F2020232044
:104B7000180008F88888E8081000203F200003008B
:104B80000000C03008080838000007182020221E46
:104B9000020008F808000008F808203F2101012160
:104BA0003F20000808F8080800000020203F2020CF
:104BB000000000000808F8080800C08080807F001E
:104BC000000008F888C028180800203F2001263877
:104BD000200008F8080000000000203F20202020CE
:104BE000300008F8F800F8F80800203F003F003FC8
:104BF000200008F830C00008F808203F20000718FF
:104C00003F00E01008080810E0000F1020202010DE
:104C10000F0008F808080808F000203F21010101F2
:104C20000000E01008080810E0000F182424385095
:104C30004F0008F8888888887000203F2000030C07
:104C40003020007088080808380000382021212210
:104C50001C00180808F8080818000000203F200071
:104C6000000008F808000008F808001F2020202095
:104C70001F000878880000C83808000007380E01B7
:104C80000000F80800F80008F800033C0700073CA3
:104C90000300081868808068180820302C03032C53
:104CA00030200838C800C83808000000203F200025
:104CB000000010080808C8380800203826212020E5
:104CC0001800000000FE020202000000007F4040C9
:104CD0004000000C30C00000000000000001063859
:104CE000C00000020202FE000000004040407F00C1
:104CF00000000000040202020400000000000000A6
:104D000000000000000000000000808080808080A3
:104D1000808000020204000000000000000000008B
:104D200000000000808080800000001924222222E0
:104D30003F2008F8008080000000003F1120201173
:104D40000E000000008080800000000E1120202056
:104D50001100000000808088F800000E1120201053
:104D60003F200000808080800000001F222222223D
:104D70001300008080F0888888180020203F2020C1
:104D800000000000808080808000006B94949493E9
:104D9000600008F8008080800000203F2100002093
:104DA0003F2000809898000000000020203F202035
:104DB0000000000000809898000000C08080807F84
:104DC000000008F8000080808000203F24022D3081
:104DD0002000000808F8000000000020203F2020EC
:104DE00000008080808080808000203F20003F2065
:104DF000003F8080008080800000203F2100002054
:104E00003F200000808080800000001F20202020A4
:104E10001F00808000808000000080FFA120201102
:104E20000E000000008080808000000E112020A075
:104E3000FF80808080008080800020203F21200033
:104E4000010000008080808080000033242424241E
:104E50001900008080E0808000000000001F2020FA
:104E600000008080000000808000001F20202010B3
:104E70003F20808080000080808000010E30080686
:104E8000010080800080008080800F300C030C3097
:104E90000F0000808000808080000020312E0E31C5
:104EA0002000808080000080808080818E701806C5
:104EB000010000808080808080000021302C222131
:104EC000300000000000807C020200000000003F73
:104ED00040400002027C800000000040403F000093
:104EE000000000000000FF00000000000000FF00C4
:104EF00000000010101010FF10101010F000000043
:104F00000000804020180700000000003F404040A3
:104F100078001060020CC004040404FC04040404BF
:104F2000000004047C0320202020203F202020209B
:104F300020004030119690909196909098141350C4
:104F40003000040404040444847E060504040404BC
:104F5000040000FE225A86100C2424252624241442
:104F60000C0000FF0408078041310F01013F41415F
:104F7000710004244484649C40300FC80808281839
:104F8000000010080601824C201806010618204077
:104F90008000404042CC0000FC040200FC0404FC01
:104FA00000000040201F20404F4442407F424443C5
:104FB0004000201008FC2310886704F40424548C5B
:104FC000000040300077808188B2848380E0001147
:104FD0006000000000FE92929292929292FE000077
:104FE000000040424458407F4040407F4050484687
:104FF000400040404242424242C24242424242405B
:105000004000201008060040807F000000020408D5
:105010003000100C048414640506F4040404041421
:105020000C00048484444724140C070C1424448486
:10503000040002FA8282FE804020504C434C5020F3
:10504000400008184884443F404458414E60584747
:1050500040000000F888888888FF88888888F800E1
:10506000000000001F080808087F888888889F8043
:10507000F00080828282828282E2A2928A8682808C
:105080008000000000000040807F00000000000061
:1050900000000000E09C848484F48282838280800B
:1050A0000000002010080640807F00000204083045
:1050B0000000000202C2020202FE8282828282029A
:1050C00000004040407F4040407F404040404040E2
:1050D00040001088C433005E505F505E40B817F047
:1050E00010000100FF002025253F25A54027186757
:1050F0008000000212620202FE000212620202FE40
:10510000000000040C4281403F00040C4281403FFB
:1051100000001088C4330020102824E32428102025
:1051200020000100FF0020110D41817F01050931A0
:10513000000008088888888888FF88888888880808
:105140000800403800003C4040424C404070040899
:10515000300000FE22FE00FE22FE00FC162584FC2C
:105160000000601F22BF403F82FF001312125282D4
:105170007E0000C0301F1010F00000FF20408000B3
:105180000000814021120C03000000FF000000031A
:1051900000000000F010101010FF10101010F000B0
:1051A000000000000F04040404FF040404040F00C2
:1051B000000000FC2024A8FFA82400FC4444C442B2
:1051C0004000003F2221202F20A3601F0000FF008D
:1051D00000001060028C0000FE9292929292FE00FB
:1051E000000004047E01407E42427E427E42427EB6
:1051F00040001060028C00FE929292929292FE0009
:10520000000004047E014448507F40407F504844E1
:1052100040000000FC242424FC252624FC24242413
:10522000040040308F80844C55252525554C8080C6
:105230008000C8B88FE88888404848E85F484848F8
:105240004000081808FF040400020B1222D20A06CC
:105250000000404042CC0004F49494FF9494F40481
:1052600000000040201F20484442415F4142444822
:1052700040000004FF242424FF0400FE222222FE1A
:10528000000088482F090919AF48300F0242827F79
:10529000000008888888888888FF888888888888A7
:1052A000080020201008040201FF01020408102059
:1052B000200004244484649C40300FC80808281847
:1052C000000010080601824C201806010618204034
:1052D0008000404042CC0000FC040200FC0404FCBE
:1052E00000000040201F20404F4442407F42444382
:1052F00040008060F80704E4242424FF242424E4EC
:1053000004000000FF0080814529112F4141818167
:1053100080000000FE22222222FE22222222FE0003
:10532000000080601F020202027F020242827F00B0
:105330000000004042445840407F40405048C60072
:105340000000004044444444444444444444FF0076
:1053500000000808E8292E28E80808C80C0BE8080F
:1053600008000000FF0949897F00000F40807F008E
:105370000000010202030405060708090A0B0C0DD0
:105380000E0F1010000000000000000001020304D6
:1053900006070809000000000102030402400000A3
:1053A000000000A00000000005400000000000C850
:1053B000000000000C4000000000409C00000000C5
:1053C000194000000020BCBE000000003440000076
:1053D000BFC91B8E00000004B5400000504BCFD069
:1053E0006607E2CF010000006C4100003E8251AA36
:1053F000DFEEA73401000000D9420000DCB5A0E2D6
:105400003A301F97FFFFFFFFB4450000FD25A0C8FD
:10541000E9A3C14FFFFFFFFFFF3F00000000008036
:1054200000000000FF3F00000000008000000000BE
:105430007C550008000000206000000028010008E2
:10544000DC550008600000205008000044010008FE
:105450001C00000043000000F8FFFFFF0C000000EC
:105460000E0000000F0000002E00000010010000E0
:1054700043000000F8FFFFFF004040404040404034
:105480004040414141414140404040404040404017
:1054900040404040404040404005020202020202BB
:1054A000020202020202020202202020202020200A
:1054B000202020020202020202029090909090901E
:1054C00010101010101010101010101010101010DC
:1054D0001010101002020202020288888888888850
:1054E000080808080808080808080808080808083C
:1054F0000808080802020202400000000000000044
:10550000000000000000000000000000000000009B
:10551000000000000000000000000000000000008B
:10552000000000000000000000000000000000007B
:10553000000000000000000000000000000000006B
:10554000000000000000000000000000000000005B
:10555000000000000000000000000000000000004B
:10556000000000000000000000000000000000003B
:10557000000000000000000000000000AED580A880
:105580003FD30040A1C8DA1281CFD9F1DB40A4A6F5
:105590008D14AF000000010101010101FF000000B6
:1055A0005A00FFFFFFFF00000000000000000000A5
:1055B000000000000000000000000000FFFFFFFFEF
:1055C0000000C6C20000C6C20000000001000000CA
:0C55D000100000000000000000127A0033
:04000005080000ED02
:00000001FF
