:020000040800F2
:10000000E00600208901000833110008C50D000832
:10001000311100088F020008A5130008000000003D
:100020000000000000000000000000003F13000876
:1000300091020008000000003D1300084113000871
:10004000A3010008A3010008A3010008A301000800
:10005000A3010008A3010008A3010008A3010008F0
:10006000A3010008A3010008A3010008A3010008E0
:10007000A3010008A3010008A3010008A3010008D0
:10008000A3010008A3010008A3010008A3010008C0
:10009000A3010008A3010008A3010008A3010008B0
:1000A000A3010008A3010008A3010008A3010008A0
:1000B000A3010008A3010008A3010008A301000890
:1000C000A3010008A3010008A3010008A301000880
:1000D000A3010008A3010008A3010008A301000870
:1000E000A3010008A3010008A301000800F002F822
:1000F00000F03AF80AA090E8000C82448344AAF188
:100100000107DA4501D100F02FF8AFF2090EBAE885
:100110000F0013F0010F18BFFB1A43F0010318473B
:100120004C1E00006C1E0000103A24BF78C878C135
:10013000FAD8520724BF30C830C144BF04680C60ED
:10014000704700000023002400250026103A28BF35
:1001500078C1FBD8520728BF30C148BF0B60704739
:100160001FB51FBD10B510BD00F058F81146FFF7C0
:10017000F7FF01F029F900F076F803B4FFF7F2FF7A
:1001800003BC00F07DF8000009488047094800479B
:10019000FEE7FEE7FEE7FEE7FEE7FEE7FEE7FEE737
:1001A000FEE7FEE704480549054A064B7047000094
:1001B000A3130008ED000008E0000020E006002086
:1001C000E0020020E00200204FF0000200B51346DC
:1001D00094469646203922BFA0E80C50A0E80C5067
:1001E000B1F12001BFF4F7AF090728BFA0E80C5018
:1001F00048BF0CC05DF804EB890028BF40F8042B11
:1002000008BF704748BF20F8022B11F0804F18BF7D
:1002100000F8012B7047704770477047754600F033
:100220002BF8AE4605006946534620F00700854688
:1002300018B020B5FFF7B6FFBDE820404FF000062C
:100240004FF000074FF000084FF0000B21F00701BE
:10025000AC46ACE8C009ACE8C009ACE8C009ACE801
:10026000C0098D46704710B50446AFF300802046A4
:10027000BDE81040FFF781BF004870477C000020B8
:1002800001491820ABBEFEE7260002007047FEE7DA
:10029000704772B6FEE7000070B5044600F0FEF845
:1002A0000546601C02D004480078044400F0F6F8CB
:1002B000401BA042FAD370BD180000202DE9F84F72
:1002C000DFF8B8910024A9F1040B23460F2709F1A8
:1002D000040AABF1040EC9E00125A5402A40AA4258
:1002E0007DD1674ED1F804C0ACEB0608B44532D0DE
:1002F00014DCBCF1030F3AD009DCBCF1000F2AD0AA
:10030000BCF1010F1CD0BCF1020F31D11DE0BCF1DA
:10031000110F17D0BCF1120F2AD119E0B8F5881FC0
:1003200019D006DCB8F5803F15D0B8F5801F1FD175
:1003300011E0B8F5001F0ED0B8F5041F18D10AE07F
:10034000CB6815E0CB681B1D12E0CB6808330FE0CB
:10035000CB680C330CE08B682BB1012B4FF00803FA
:1003600003D0456104E0042302E0056100E00023BE
:10037000FF2A01D8064601E000F104064FEA840591
:1003800001D9A5F12005D6F8008007FA05FC28EA76
:100390000C0803FA05F548EA0508C6F800804D6820
:1003A000ED0062D5374DAE6946F00106AE61AD692C
:1003B00024F0030605F001050095334D06EB050C0E
:1003C000DCF80850A607360F07FA06F825EA0805F4
:1003D000DFF8B880404503D14FF0000817E044E053
:1003E000DFF8AC80404502D14FF001080FE0DFF8A4
:1003F000A480404502D14FF0020808E0DFF8988061
:10040000404502D14FF0030801E04FF0040808FA1C
:1004100006F848EA0508CCF808804D68D9F800606D
:10042000ED024D4601D5164300E096432E604D681F
:10043000DAF80060AD02554601D5164300E0964358
:100440002E604D68DBF80060AD035D4601D51643B4
:1004500000E096432E604D68DEF80060ED037546BF
:1004600001D5164300E096432E60641C0D682A46B1
:10047000E5407FF431AFBDE8F88F0000080401408B
:10048000000011100010024000000140000801406F
:10049000000C014000100140001401400148806838
:1004A000704700001800002070B5040025D094F8B3
:1004B0003D00002520B984F83C50204600F050F95A
:1004C000242084F83D002068016821F001010160CA
:1004D0002068016841F4004101602068016821F44E
:1004E0000041016000F094FA4D4A6168914201D8E0
:1004F0004C4900E04C49884201D2012070BD4B4973
:100500002368B0FBF1F15E6826F03F060E435E60A3
:100510006368934206D94FF4967359434FF47A7344
:10052000B1FBF3F12368491C1E6A26F03F063143F4
:1005300019626168914210D84900401EB0FBF1F287
:10054000521CC2F30B02042A01D2042022E0B0FBA9
:10055000F1F0401CC0F30B001CE0A268F2B301EB09
:10056000C10303EB0116431EB3FBF6F35B1C43F41C
:1005700080431B0549D092B301EBC10202EB01118C
:10058000401EB0FBF1F0401CC0F30B0040F4804073
:1005900040F400402168CA694CF6FF739A43104347
:1005A000C861D4E9071001432068026822F0C00244
:1005B00011430160D4E9030101432068826848F2D5
:1005C000FF339A4311438160D4E905010843216850
:1005D000CA6822F0FF021043C86001E00EE016E096
:1005E0002068016841F0010101602564202084F841
:1005F0003D00256384F83E50002070BD01EB4106AC
:10060000431EB3FBF6F35B1CB3E70120C2E701EB2B
:100610004101401EB0FBF1F0401CC0F30B00B7E7F6
:10062000A086010080841E0000093D0040420F00AA
:100630002DE9FF4F83B09A46DDE9119793460446B2
:10064000DDF84080FFF72AFF054694F83D0020289A
:100650007FD11923012240492046009500F04AFC31
:10066000002876D194F83C00012872D0012084F84B
:100670003C0020680168C90703D1016841F001010D
:1006800001602068016821F400610160212084F884
:100690003D00402084F83E0000262664C4F82480F3
:1006A000A4F82A90608D20852C48E062CDE9007581
:1006B00053465A462046049900F09CFB70B930E03E
:1006C0002A463946204600F0BBFC58B1206C04286D
:1006D00004D12068016841F400710160012007B075
:1006E000BDE8F08F606A216800780861606A401C8C
:1006F0006062218D491E89B22185628D521E6285FC
:1007000022685369DB435B070BD469B10078106141
:10071000606A401C6062208D401E2085608D401EF6
:100720006085208D0028CBD12A463946204600F02E
:10073000B5FB0028CAD154F83D0B016841F40071A3
:100740000160202004F81E09E67766770020C6E7DE
:10075000FFE70220C3E70000020010000000FFFFD7
:1007600010B586B0002100910191029103910068BB
:100770001349884222D1134CA06940F00800A061BF
:10078000A069694600F0080004904FF440700090A2
:1007900012200190032003900B48FFF78FFD0B48B8
:1007A000416841F0E06141F002014160E06940F4DC
:1007B0000010E061E06900F40010049006B010BD84
:1007C0000054004000100240000C014000000140B5
:1007D0000248816802781144816070471800002047
:1007E000074810B5016841F010010160032000F0D6
:1007F00067F80F2000F006F800F024F8002010BD84
:100800000020024070B50D4D04464FF47A712878EF
:10081000B1FBF0F00A490968B1FBF0F000F0BEFA54
:1008200048B9102C07D200222146501E00F028F8AB
:1008300000206C6070BD012070BD00001800002019
:10084000240000200C4808B5816941F00101816154
:10085000816901F001010091C16941F08051C161DC
:10086000C06900F0805000900448416821F0E061C8
:1008700041F00071416008BD0010024000000140DD
:10088000F0B40E4B1B680C46C3F30223C3F10705FB
:10089000042D00D90425191D072901D2002300E0E9
:1008A000DB1E012606FA05F1491E214099409E40B3
:1008B000761E16403143F0BC00F075BD0CED00E033
:1008C000064900F0070208684FF6FF03184040EAA7
:1008D0000220034A10430860704700000CED00E05E
:1008E0000000FA052DE9F0470F46050061D0434EA0
:1008F000306800F00700B84209D2306820F00700E5
:1009000038433060306800F00700B84251D12868A1
:100910003B4C810712D5400703D5606840F4E06086
:1009200060602878000703D5606840F4605060601C
:100930006068A96820F0F000084360602878C0076C
:1009400028D06868012810D02168022810D08907B3
:1009500000292EDA616821F0030101436160FFF78D
:100960009DFD804641F288390DE021688903EFE75B
:100970008901EDE7FFF792FDA0EB0801494502D997
:100980000320BDE8F0876068696800F00C00B0EBF8
:10099000810FEFD1306800F00700B8420BD9306802
:1009A00020F0070038433060306800F00700B8429C
:1009B00001D00120E5E72878400705D56068E9689F
:1009C00020F4E060084360602878000706D560687E
:1009D000296920F4605040EAC100606000F028F806
:1009E0006168084AC1F30311515CC84006490860B8
:1009F00006480068FFF706FF0020C2E7002002401B
:100A000000100240521F0008240000201C0000209B
:100A10000448054900684968044AC1F30221515C51
:100A2000C84070472400002000100240621F0008E8
:100A30000E4A51680E4801F00C03042B11D0082B0C
:100A40000FD10C48C1F38343C903C05C0AD5516878
:100A5000084AC1F34041921E515C054A5043B0FB25
:100A6000F1F070470449484370470000001002400D
:100A700000127A00421F000800093D002DE9F84FDE
:100A8000040070D02078C04DC00749D06868C0F31A
:100A90008100012807D06868C0F38100022809D1CD
:100AA0006868C00306D52868800339D560680028C7
:100AB000E7D035E06068B0F5803F0BD010B1B0F5FD
:100AC000A02F11D0286820F480302860286820F4F6
:100AD000802002E0286840F480302860606890B18F
:100AE000FFF7DCFC06460AE0286840F48020286016
:100AF000F0E700BFFFF7D2FC801B642873D828689A
:100B00008003F7D50CE0FFF7C9FC064605E000BFFF
:100B1000FFF7C4FC801B6428F0D828688003F7D452
:100B200020789A4E80074FF001094FF0000839D520
:100B3000686810F00C0F07D06868C0F381000228C5
:100B400009D16868C00306D42868800714D52069D5
:100B5000012808D110E02069B0B1C6F80090FFF775
:100B60009DFC074605E00AE1FFF798FCC01B022840
:100B7000C4D828688007F7D52868616920F0F80094
:100B800040EAC10028600DE0C6F80080FFF786FC4F
:100B9000074604E0FFF782FCC01B022823D8286820
:100BA0008007F7D4207800072CD57948A169D9B1FE
:100BB000C0F80090FFF772FC074604E0FFF76EFCF8
:100BC000C01B02280FD8686A8007F7D571484FF418
:100BD000FA510068B0FBF1F0009000BF0098411E90
:100BE0000091FAD20EE080E0C0F80080FFF756FCDA
:100BF000074604E0FFF752FCC01B022875D8686A5C
:100C00008007F7D42078400760D5E8690027C00046
:100C100008D4E86940F08050E861E869012700F0F5
:100C2000805000905C480168C90513D40168834670
:100C300041F480710160FFF731FC824606E000BF9D
:100C4000FFF72CFCA0EB0A0064284ED8DBF800006C
:100C5000C005F5D5E06801280AD008B1052813D0F1
:100C6000286A20F001002862286A20F0040002E0CF
:100C7000286A40F001002862E06841F2883B98B1A0
:100C8000FFF70CFC82460BE0286A40F00400286263
:100C9000EEE700BFFFF702FCA0EB0A0159455AD866
:100CA000286A8007F6D50CE0FFF7F8FB824605E0DE
:100CB000FFF7F4FBA0EB0A0159454CD8286A8007DE
:100CC000F6D41FB1E86920F08050E861E06988B38C
:100CD0006968C1F38101022944D00228C6F8608006
:100CE00004D0FFF7DBFB044638E034E0FFF7D6FB27
:100CF000074604E0FFF7D2FBC01B02282BD8286868
:100D00008001F7D4206AB0F5803F05D16868A168FA
:100D100020F4003008436860D4E90801084369689A
:100D200021F4741108436860C6F86090FFF7B6FBC1
:100D3000044606E025E000BFFFF7B0FB001B0228D9
:100D400009D828688001F7D51BE000BFFFF7A6FB94
:100D5000001B022802D90320BDE8F88F2868800113
:100D6000F4D40EE00128F7D06868226A00F48031DC
:100D7000914204D1616A00F47010884201D00120D0
:100D8000EAE70020E8E700000010024000004242CD
:100D900080044242240000200070004010B5401E34
:100DA000B0F1807F01D3012010BD4FF0E0246061DD
:100DB0000F21601700F0F7FA0020A06107202061E2
:100DC000002010BDFEE701684A69D24352050FD4E6
:100DD0006FF480624A61002140F8301F2022427384
:100DE0008173026942F004020261017301207047BD
:100DF000002070472DE9F843044600680D46DDE900
:100E0000089701689846164641F4807101604B4688
:100E100000224FF001112046009700F06BF848B116
:100E200020680068C00502D54FF4007020640320DC
:100E3000BDE8F883216805F0FE0008613B464A469C
:100E40001549204600F09EF888B9206841698069FC
:100E500000903A464946204600F0F2F848B1206C2E
:100E6000042804D12068016841F400710160012068
:100E7000DEE7F5B2B8F1010F09D02168300A086148
:100E80003A464946204600F0DBF80028E7D12068C2
:100E900005610020CCE700000200010070B5164695
:100EA0000D4604461EE02046FFF78DFF08B10120E5
:100EB00070BD681C16D0FFF7F1FA801BA84200D85D
:100EC00085B920684069C04340070BD5002044F82D
:100ED000300F20216173A073216941F0200121614D
:100EE0002073E4E720684069C0434007DBD400205A
:100EF00070BD00002DE9F047984617460D460446A0
:100F0000C1F30746DDF820902AE000BFB8F1FF3FAB
:100F100026D0FFF7C3FAA0EB0901414502D8B8F18A
:100F2000000F1DD12068012E16D0806925EA00002F
:100F30000004000C12D00020B84211D1002044F867
:100F4000300F20216173A073216941F020012161DC
:100F500020730120BDE8F0874069E7E70120EBE757
:100F60002068012E0AD0806925EA00000004000CE8
:100F700006D00020B842C9D00020EBE74069F3E773
:100F80000120F7E72DE9F047984616460D4604463E
:100F90004FF000094FF0200AC1F3074723E0206813
:100FA0004069C043400515D42068016841F40071D0
:100FB000016021686FF480604861C4F8309084F863
:100FC0003DA084F83E90216C41F00401216484F836
:100FD0003C9021E0701C06D0FFF760FAA0EB0800FF
:100FE000B04203D816B1012F1FD021E02068012F95
:100FF00015D0806925EA00000004000C18D000BF5D
:1010000044F8309F84F80DA084F80E90216941F0D7
:101010002001216184F80C900120BDE8F08740692F
:1010200025EA00000004000CEAD12068406901E0D4
:101030002068806925EA00000004000CAFD1ECE7CD
:1010400070B516460D4604461EE02046FFF7BBFE6F
:1010500008B1012070BD681C16D0FFF71FFA801B75
:10106000A84200D885B920684069C04300060BD566
:10107000002044F8300F20216173A073216941F0F2
:10108000200121612073E4E720684069C043000625
:10109000DBD4002070BD000000B585B000200190B9
:1010A00003901148816941F020018161816901F05B
:1010B00020010491816941F004018161816901F09D
:1010C00004010491816941F00801816180696946E8
:1010D00000F00800049004200090012002900348D2
:1010E000FFF7ECF805B000BD001002400008014019
:1010F0000D4810B50B4901600C49416000214FF4C7
:1011000080428160C0E9031241618161C161016275
:10111000FFF7CAF9002803D0BDE81040FFF7B9B8BF
:1011200010BD00000054004028000020A0860100EF
:10113000FEE7FEE770B5002404F1B000C0B200F095
:10114000D9F8002000F0D6F8102000F0D3F80025E0
:10115000002000F0E1F86D1CEDB2802DF8D3641C86
:10116000E4B2082CE8D370BD70B5C820FFF794F83E
:10117000044D0024285D00F0BDF8641CE4B2172C77
:10118000F8D370BD0000002010B50446B031C8B2DD
:1011900000F0B0F8102040EA141000F0ABF804F0B2
:1011A0000F00BDE8104000F0A5B800002DE9F041A7
:1011B0001E4615460F468046FFF7E6FF0F480024FF
:1011C00000EB4515285D0EB1C043C0B200F0A4F895
:1011D000641CE4B2102CF5D37F1CF9B24046FFF733
:1011E000D3FF1024285D0EB1C043C0B200F094F8C4
:1011F000641CE4B2202CF5D3BDE8F081201D00086A
:101200002DE9F047203A0024089E0F468146D5B2CA
:101210007F2803D900208F1C8146FFB2102B39464E
:1012200012D0FFF7B1FF1B4905EB450001EB40056C
:10123000285D0EB1C043C0B200F06EF8641CE4B289
:10124000062CF5D3BDE8F087FFF79EFFDFF8488056
:1012500004EB051118F801000EB1C043C0B200F054
:101260005BF8641CE4B2082CF2D37F1CF9B2484648
:10127000FFF78AFF0024474604EB05103844007A44
:101280000EB1C043C0B200F047F8641CE4B2082CB1
:10129000F2D3D7E718150008401700082DE9F843E6
:1012A0001E461746894604460025DDF8208014E0D6
:1012B000334649462046CDF80080FFF7A1FF0C2EAB
:1012C00010D00834E4B27A2C01D90C2E0CD0782C32
:1012D00001D9102E08D06D1CEDB27A5D002AE7D13D
:1012E000BDE8F883A41DEDE709F10100002400F03A
:1012F000FF09F0E701B584B001214FF4807204A822
:101300008DE807000B46002278210248FFF790F98C
:1013100005B000BD2800002001B584B001214FF4C4
:10132000807204A88DE807000B464022782102480D
:10133000FFF77EF905B000BD280000207047704718
:10134000FFF746BA30B58FB028216846FEF73CFF5C
:1013500014210AA8FEF738FF01210804CDE9001086
:101360000024029402250491CDE907504FF4E010C7
:1013700009906846FFF782FB08B172B6FEE70F20BE
:10138000CDE90A054FF48060CDE90C4002210AA89E
:101390000E94FFF7A7FA002801D072B6FEE70FB04F
:1013A00030BD7047FEE70907090E002804DB00F195
:1013B000E02080F80014704700F00F0000F1E020FA
:1013C00080F8141D7047000008B5FFF709FAFFF711
:1013D000B9FFFFF761FEFFF78BFEFFF7C5FEFFF7D2
:1013E000A9FE00244FF4FA6541F28836FFF7A2FE09
:1013F00000231A4619461846FFF7D8FE002301229B
:1014000019461020FFF7D2FE0023022219462020A1
:10141000FFF7CCFE0023032219463020FFF7C6FE5B
:101420000023042219464020FFF7C0FE00230522B6
:1014300019465020FFF7BAFE002306221946602005
:10144000FFF7B4FE2846FEF727FFFFF773FE0021E3
:1014500010232AA208460094FFF720FF002307224A
:1014600019462020FFF7A2FE00230822194630204B
:10147000FFF79CFE0023092219464020FFF796FE45
:1014800000230A2219465020FFF790FE00230B226A
:1014900003211846FFF78AFE00230C2203211020A7
:1014A000FFF784FE102317A2032120200094FFF7EA
:1014B000F5FE00230D2203215020FFF777FE0023C5
:1014C0000E2203216020FFF771FE00230F2203216B
:1014D0007020FFF76BFE00230F2203217020FFF71F
:1014E00065FE102309A2062100200094FFF7D6FE16
:1014F0003046FEF7D1FEFFF71DFE77E74F4C45441F
:101500000000000041323378787979003230323689
:101510002E342E32370000000000000000000000D2
:10152000002F000000000700070000147F147F1444
:1015300000242A7F2A1200626408132300364955CA
:10154000225000000503000000001C2241000000A2
:1015500041221C000014083E08140008083E080838
:10156000000000A060000008080808080000606093
:101570000000002010080402003E5149453E0000D2
:10158000427F4000004261514946002141454B31B4
:10159000001814127F10002745454539003C4A4980
:1015A00049300001710905030036494949360006F2
:1015B0004949291E0000363600000000563600005A
:1015C00000081422410000141414141400004122D5
:1015D000140800020151090600324959513E007CAD
:1015E0001211127C007F49494936003E4141412297
:1015F000007F4141221C007F49494941007F090980
:101600000901003E4149497A007F0808087F00002F
:10161000417F4100002040413F01007F08142241EA
:10162000007F40404040007F020C027F007F0408A2
:10163000107F003E4141413E007F09090906003EFE
:101640004151215E007F0919294600464949493127
:101650000001017F0101003F4040403F001F20404A
:10166000201F003F4038403F006314081463000708
:101670000870080700615149454300007F4141005F
:1016800000552A552A55000041417F0000040201FF
:1016900002040040404040400000010204000020DD
:1016A00054545478007F484444380038444444201B
:1016B00000384444487F00385454541800087E09C8
:1016C00001020018A4A4A47C007F08040478000090
:1016D000447D4000004080847D00007F102844004D
:1016E0000000417F4000007C04180478007C08045E
:1016F000047800384444443800FC2424241800189A
:10170000242418FC007C0804040800485454542085
:1017100000043F444020003C4040207C001C20400E
:10172000201C003C4030403C004428102844001C51
:10173000A0A0A07C004464544C4414141414141449
:101740000000000000000000000000000000000099
:10175000000000F80000000000000033300000002E
:1017600000100C06100C0600000000000000000035
:1017700040C07840C0784000043F04043F040400A7
:10178000007088FC08300000001820FF211E0000B7
:10179000F008F000E018000000211C031E211E00CC
:1017A00000F00888700000001E2123241927211052
:1017B00010160E00000000000000000000000000F5
:1017C000000000E01804020000000007182040009C
:1017D00000020418E000000000402018070000008C
:1017E000404080F0804040000202010F01020200F0
:1017F000000000F0000000000101011F01010100D4
:10180000000000000000000080B070000000000038
:1018100000000000000000000001010101010101C1
:101820000000000000000000003030000000000058
:10183000000000008060180400601806010000002D
:1018400000E010080810E000000F102020100F002A
:10185000001010F8000000000020203F20200000B1
:101860000070080808887000003028242221300009
:1018700000300888884830000018202020110E0011
:101880000000C02010F8000000070424243F2400BA
:1018900000F80888880808000019212020110E008F
:1018A00000E0108888180000000F112020110E00A1
:1018B00000380808C83808000000003F0000000099
:1018C0000070880808887000001C222121221C005A
:1018D00000E010080810E0000000312222110F0083
:1018E000000000C0C0000000000000303000000018
:1018F0000000008000000000000080600000000088
:1019000000008040201008000001020408102000A0
:1019100040404040404040000404040404040400EB
:101920000008102040800000002010080402010080
:10193000007048080808F000000000303601000080
:10194000C030C828E810E0000718272423140B0033
:101950000000C038E0000000203C230202273820AD
:1019600008F8888888700000203F202020110E0091
:10197000C030080808083800071820202010080088
:1019800008F808080810E000203F202020100F0071
:1019900008F88888E8081000203F2020232018003D
:1019A00008F88888E8081000203F200003000000A5
:1019B000C03008080838000007182020221E020046
:1019C00008F808000008F808203F210101213F2005
:1019D000000808F8080800000020203F2020000030
:1019E00000000808F8080800C08080807F00000020
:1019F00008F888C028180800203F20012638200059
:101A000008F8080000000000203F202020203000BF
:101A100008F8F800F8F80800203F003F003F2000D9
:101A200008F830C00008F808203F200007183F00E1
:101A3000E01008080810E0000F10202020100F0010
:101A400008F808080808F000203F21010101000003
:101A5000E01008080810E0000F18242438504F0048
:101A600008F8888888887000203F2000030C302008
:101A700000708808080838000038202121221C0046
:101A8000180808F8080818000000203F200000008F
:101A900008F808000008F808001F202020201F0078
:101AA0000878880000C83808000007380E010000D8
:101AB000F80800F80008F800033C0700073C0300A2
:101AC000081868808068180820302C03032C302008
:101AD0000838C800C83808000000203F2000000077
:101AE00010080808C83808002038262120201800CF
:101AF000000000FE020202000000007F40404000A3
:101B0000000C30C000000000000000010638C000DA
:101B100000020202FE000000004040407F00000082
:101B200000000402020204000000000000000000A7
:101B300000000000000000008080808080808080A5
:101B4000000202040000000000000000000000008D
:101B500000008080808000000019242222223F2083
:101B600008F8008080000000003F112020110E00C6
:101B70000000008080800000000E11202020110055
:101B8000000000808088F800000E112020103F2007
:101B90000000808080800000001F2222222213008B
:101BA000008080F0888888180020203F20200000D6
:101BB0000000808080808000006B9494949360008B
:101BC00008F8008080800000203F210000203F2096
:101BD00000809898000000000020203F2020000096
:101BE000000000809898000000C08080807F000086
:101BF00008F8000080808000203F24022D30200063
:101C0000000808F8000000000020203F202000000D
:101C10008080808080808000203F20003F20003F27
:101C20008080008080800000203F210000203F2035
:101C30000000808080800000001F202020201F00E6
:101C4000808000808000000080FFA12020110E0015
:101C50000000008080808000000E112020A0FF8006
:101C6000808080008080800020203F2120000100B3
:101C70000000808080808000003324242424190008
:101C8000008080E0808000000000001F2020000015
:101C90008080000000808000001F202020103F2056
:101CA000808080000080808000010E3008060100E6
:101CB00080800080008080800F300C030C300F008B
:101CC00000808000808080000020312E0E312000B6
:101CD000808080000080808080818E7018060100E6
:101CE00000808080808080000021302C2221300004
:101CF00000000000807C020200000000003F404025
:101D00000002027C800000000040403F0000000014
:101D100000000000FF00000000000000FF000000C5
:101D20000010101010FF10101010F0000000000044
:101D3000804020180700000000003F40404078002D
:101D40001060020CC004040404FC04040404000039
:101D500004047C0320202020203F2020202020007D
:101D600040301196909091969090981413503000B6
:101D7000040404040444847E0605040404040400EA
:101D800000FE225A86100C242425262424140C003C
:101D900000FF0408078041310F01013F41417100FC
:101DA00004244484649C40300FC8080828180000AC
:101DB00010080601824C20180601061820408000F9
:101DC000404042CC0000FC040200FC0404FC000083
:101DD0000040201F20404F4442407F424443400087
:101DE000201008FC2310886704F40424548C00009D
:101DF00040300077808188B2848380E000116000E9
:101E0000000000FE92929292929292FE00000000D8
:101E100040424458407F4040407F40504846400048
:101E200040404242424242C242424242424040005C
:101E3000201008060040807F0000000204083000E7
:101E4000100C048414640506F404040404140C0047
:101E5000048484444724140C070C14244484040090
:101E600002FA8282FE804020504C434C50204000B9
:101E700008184884443F404458414E605847400049
:101E80000000F888888888FF88888888F800000023
:101E900000001F080808087F888888889F80F00055
:101EA00080828282828282E2A2928A8682808000FE
:101EB000000000000040807F0000000000000000E3
:101EC0000000E09C848484F482828382808000000D
:101ED000002010080640807F000002040830000047
:101EE000000202C2020202FE82828282820200009C
:101EF0004040407F4040407F4040404040404000A4
:101F00001088C433005E505F505E40B817F0100078
:101F10000100FF002025253F25A5402718678000E8
:101F2000000212620202FE000212620202FE0000C1
:101F300000040C4281403F00040C4281403F0000FD
:101F4000010202030405060708090A0B0C0D0E0F17
:101F5000101000000000000000000102030406074A
:101F60000809000000000102030400008C1F0008A3
:101F7000000000202800000028010008B41F00080D
:101F800028000020B806000044010008AED580A853
:101F90003FD30040A1C8DA1281CFD9F1DB40A4A61B
:101FA0008D14AF00010000001000000000000000D0
:041FB00000127A00A1
:04000005080000ED02
:00000001FF
